:020000040800F2
:10000000E01001209D0100089D4E0008E53B00081E
:10001000394E000885050008555C00080000000006
:10002000000000000000000000000000D1500008A7
:1000300051090008000000006D4F000879510008C8
:10004000B7010008B7010008B7010008B7010008B0
:10005000B7010008B7010008B7010008B7010008A0
:10006000B7010008B7010008B701000899080008A7
:10007000B7010008B7010008B7010008B10800087F
:10008000B7010008B7010008C1030008B701000864
:10009000B7010008B7010008B7010008B701000860
:1000A000B7010008B701000825520008B701000891
:1000B000B7010008B701000831520008B701000875
:1000C000B7010008B7010008B7010008B701000830
:1000D000B7010008B1580008B7010008B7010008CF
:1000E000B7010008B7010008B7010008B701000810
:1000F000B70100083D520008B7010008B701000829
:10010000B7010008B7010008B7010008B7010008EF
:10011000B7010008B7010008B7010008B7010008DF
:10012000B7010008BD080008B7010008C9080008A9
:10013000B7010008B7010008B7010008B7010008BF
:10014000B7010008B7010008B7010008B7010008AF
:10015000B7010008B7010008B7010008B70100089F
:10016000B7010008B7010008B7010008B70100088F
:10017000B7010008B7010008B7010008000000003F
:10018000B7010008B7010008DFF80CD000F0DAF87A
:1001900000480047F1610008E01001200648804750
:1001A00006480047FEE7FEE7FEE7FEE7FEE7FEE75C
:1001B000FEE7FEE7FEE7FEE71552000889010008AA
:1001C0002DE9F05F0546002092469B46884606468C
:1001D000814640241BE0284641464746224600F01F
:1001E00041F853465A46C01A914110D31146184659
:1001F000224600F016F82D1A67EB01084F462246FA
:100200000120002100F00DF817EB00094E41201EDF
:10021000A4F10104DFDC484631462A464346BDE8E6
:10022000F09F202A04DB203A00FA02F100207047F8
:100230009140C2F1200320FA03F319439040704724
:10024000D2B201E000F8012B491EFBD27047002218
:10025000F6E710B513460A4604461946FFF7F0FFC5
:10026000204610BD202A04DB203A21FA02F00021AA
:10027000704721FA02F3D040C2F1200291400843B6
:10028000194670470029A8BF7047401C490008BFA5
:1002900020F00100704710B4B0FA80FC00FA0CF0B6
:1002A00050EA010404BF10BC704749B1CCF12004EE
:1002B00021FA04F411FA0CF118BF0121214308437B
:1002C000A3EB0C01CB1D4FEA00614FEA102042BFA7
:1002D000002010BC704700EBC35010440029A4BF9D
:1002E00010BC7047401C490008BF20F0010010BC42
:1002F0007047F0B400F0004221F0004120F00040CF
:10030000CE0DC30DC1F3160141F40001C0F3160078
:100310004C42154640F40000761E09E010EB440004
:1003200002D582F0004240428842F7D840005B1E6E
:10033000B342F9DA18B1F0BC0021FFF7ACBF284690
:10034000F0BC7047064C074D06E0E06840F0010342
:1003500094E8070098471034AC42F6D3FFF718FF33
:10036000546300087463000870B58C1810F8015BC2
:1003700015F0070301D110F8013B2A1106D110F83E
:10038000012B03E010F8016B01F8016B5B1EF9D142
:100390002B0705D40023521E0DD401F8013BFAE7C8
:1003A00010F8013BCB1A921C03E013F8015B01F833
:1003B000015B521EF9D5A142D8D3002070BD0000C8
:1003C00010B5054800F0A5FE044800F0A2FEBDE807
:1003D0001040034800F09DBE78FD0020C0FD0020C5
:1003E00008FE0020464910B54A6822F440324A60AF
:1003F0004A6843681A434A6001684A6822F4807276
:100400004A6001684A68036942EA03224A60016857
:100410004A6822F040724A6001684A6883681A4359
:100420004A6001688A6822F400628A6001688A680A
:10043000C3681A438A60816A6FF07062D1420168B2
:100440008A6822F070628A6001688A680CD0836AC8
:100450001A438A6001688A6822F040528A60016803
:100460008A68C36A1A4301E022F040528A60016838
:100470008A6822F002028A6001688A68037E42EA82
:1004800043028A6090F82010002901684A680FD062
:1004900042F400624A6001684A6822F460424A609D
:1004A00001684A68174C436A04EB43331A4301E07E
:1004B00022F400624A600168CA6A22F47002CA62C9
:1004C0000168CA6A838B104C04EB03531A43CA6257
:1004D00001688A6822F400728A6001688A6890F86C
:1004E000303042EA43228A6001688A6822F48062DE
:1004F0008A6001688A68406942EA8020886010BD8D
:100500000023014000E0FFFF0000F0FF034900204E
:10051000086001202831086070470000E00B0120CE
:100520007FB5044600200390084603A902236425F2
:100530008DE82A000C2201236C2101F0CBFC00B1D4
:1005400001202074002817D19DF80C109DF80D0093
:1005500001F00F0140EA0120A080400000EE100AE7
:10056000DFED060AB8EE400A20EE200ADFED040AAD
:1005700020EE200A84ED020A7FBD0000DB0F494017
:1005800000008039FEE7000010B52DED0E8BF0EE77
:1005900041BAF0EE60EAB0EE40EAB7EE008ADFED75
:1005A0006DDADFED6D8AB0EE6B0AB0EE68BAB0EED0
:1005B00068AAF0EE689AF0EE68AAB0EE689A05F0C4
:1005C0006DFCB0EE40DAB0EE6B0A05F067FB6EEE44
:1005D000801A2EEE8D1AB6EE002A4EEE4D1A0EEE51
:1005E000001A9FED5E0A21EE800A61EE2D0A01EEEF
:1005F000420A20EE2D0ADFED5A2AF5EEC00A61EE1E
:10060000A21A41EE421A21EEAD1AF1EE10FA01DD06
:10061000012000E00020B5EEC00AF1EE10FA01DD85
:10062000012100E00021B5EEC01A40EA4101F1EEDF
:1006300010FA01DD012000E0002041EA80000728D7
:1006400022D2DFE800F021091D04130E1800F0EE9D
:1006500040AAF0EE608A17E0B1EE40AAF1EE418ABE
:1006600012E0B0EE60AAF0EE419A0DE0B1EE60BA91
:10067000F1EE409A08E0B0EE41BAB0EE409A03E0E5
:10068000F1EE41AAB1EE609A3BEE0A0A30EE290A79
:1006900030EE2A0A30EE090A70EE280A10EE901A9F
:1006A000B1F17E5F0DDD88EE200A2BEE00BA2AEE56
:1006B00000AA69EE809A6AEE80AA29EE009A68EE96
:1006C000808A38EE600A072820EE028A36D2DFE8F8
:1006D00000F0350B2D041D1424003AEEA80A38EE64
:1006E00088CA70EE08BA05E03AEE280A78EE88BAB1
:1006F00030EE08CAF0EE48CA20E03AEE290AF0EEE1
:1007000048BA79EE88CA30EE08CA17E0F0EE48BA67
:1007100039EE88CA3BEE290A05E079EE08BA3BEECD
:10072000090AB0EE48CA70EE08CA07E03AEE890A34
:1007300079EE08CAB0EE48CA70EE08BA9FED091A01
:100740002BEE810A6CEE010A2CEE811ABDEC0E8BA9
:1007500010BD00003ACD133E00000000D7B35D3F4E
:10076000D7B35DBF0000964570B5334C9FED310A9D
:10077000002584ED000A84ED010A84ED020A84ED6F
:10078000030A01212D4800F091FB00EE100AD4ED80
:10079000000A0221B8EE400A284830EE200A84ED13
:1007A000000A00F083FB00EE100AD4ED010A0121DB
:1007B000B8EE400A224830EE200A84ED010A00F02B
:1007C00075FB00EE100AD4ED020A0221B8EE400AD1
:1007D0001B4830EE200A84ED020A00F067FB00EEB1
:1007E000100AD4ED030A0120B8EE400A30EE200AC8
:1007F00084ED030A01F0A4F96D1C642DC1DBD4ED76
:10080000000A9FED100A80EE801A84ED001AD4EDE4
:10081000010A80EE801A84ED011AD4ED020A80EEFE
:10082000801A84ED021AD4ED030A80EE801A84ED5A
:10083000031A70BD0000000064FD002078FD002058
:10084000C0FD00200000C842F0EE000A80ED000A62
:1008500001EE200ADFED030A20EE200A81ED000AF6
:10086000704700003ACD13BF9FED0A0A80ED000AE1
:1008700080ED020A80ED040A80ED050A80ED060A8B
:1008800080ED070A80ED080A80ED090A80ED0A0A6A
:10089000704700000000000010B5034801F016F892
:1008A00002490120087010BDB002012038FD00206F
:1008B000014801F00BB80000E8000120014801F0F8
:1008C00005B8000050FE0020014800F0FFBF000006
:1008D0008800012001681823CAB2103AB2FBF3F273
:1008E000054B6FF30901032A9B5CC36500D9091D01
:1008F00081650846704700001463000810B5014682
:1009000000208B698A6A4FF0C07453B1B3F5005F61
:1009100015D072B1012A0CD0022A0AD0032A09D1BB
:1009200004E01AB1012A06D0022A03D1C96AC9011A
:1009300000D5012010BDC96AA142FAD010BD002A1D
:10094000F7D0012AF2D0022AF3D0032AF3D010BD47
:100950007047B5EEC00AF1EE10FA06DDF5EEC00AFA
:10096000F1EE10FA01D2F1EE600AB5EEC00AF1EE36
:1009700010FA06D2F5EEC00AF1EE10FA01DDF1EE42
:10098000600AB0EE600A704772B6FEE710B5072342
:100990002DED028B01220021364804F04EFA072388
:1009A0004FF0FF320121344804F047FADFED338A7B
:1009B0009FED338AB0EE002AF8EE001AB0EE681A06
:1009C000F0EE480AB7EE080A2E4804F09BFA2D48CC
:1009D000B0EE082AF8EE081AB0EE681ADFED2A0A1F
:1009E000B0EE480A1C3004F08DFA0122202127487D
:1009F00001F0A0F92648FFF737FF4FF4967001F099
:100A00009FF8FFF7B1FE23494FF44872086842632C
:100A10000B68002098630968C8631F490B685A6314
:100A20000A6890630968C8634FF4FA7001F088F8A7
:100A30001A491B48FFF774FD1A491B48FFF770FD60
:100A400017481949808800EE100A1848B8EE400A85
:100A500080ED000A898800EE101AB8EE400A80ED99
:100A6000010A0848BDEC028B3830BDE8104004F0A4
:100A7000E7B90000300C01205C0C012000000000F0
:100A80009A99993E700B0120CDCCCC3D00100240CC
:100A9000880C01204801012068020120D8FE0020B6
:100AA000E00B01202CFF0020080C01204CFD002051
:100AB00070B5044605F096FB314E0546706805F0AA
:100AC00089FB9FED301A716851B1216A41B1A0F1E3
:100AD000320142F2DF62914217D394ED050A70BDF4
:100AE0007560256294ED020A84ED070AB4F90600E8
:100AF000A061400000EE900AF8EEE00A00EE810AE4
:100B000084ED090A9FED200A70BDB4F90610D4EDFA
:100B1000020A490000EE101A1C4AB8EEC00A40EE64
:100B2000010A94ED090A9FED1A1A30EEC00A10EE80
:100B3000101A914202DD30EE410A06E010EE101A62
:100B4000144A914201D930EE010A01EE100ADFED9C
:100B5000121AB8EE411A21EE211AC0EE011A9FEDC9
:100B60000F0A94ED051A21EE800ADFED0D1A01EE51
:100B7000210A84ED050AC4ED090A2562756070BD7D
:100B80005CFD0020DB0F494000000000DB0F494006
:100B9000DB0FC940DB0F49C0BD378635CDCC4C3E9D
:100BA000CDCC4C3F70B590F83C20694C012A19D04F
:100BB000012280F83C200A6807250368092A13D916
:100BC000DE680A3A02EB42029540AE43DE600A78E4
:100BD0008B680A3A02EB420293400268D5682B43C5
:100BE000D36010E0022070BD1E6902EB4202954006
:100BF000AE431E610A788B6802EB420293400268A2
:100C000015692B4313610268936B23F440139363BC
:100C10000268936B0D8A4F4E06EB05552B43936389
:100C20000A790B7CD21AD21C02EB82021F2393405A
:100C30000268956B9D4395630A790B7CD21A0B88E9
:100C4000D21C02EB82029BB293400268956B2B434D
:100C500093638A69A2420268936823F470239360C5
:100C6000026893680CD08C69234393600268936890
:100C700023F44013936002689368CC69234301E036
:100C800023F4401393604A7D002A0268536802D01F
:100C900043F4806301E023F4806353600A7D002AFB
:100CA0000268536802D043F4805301E023F4805378
:100CB00053604A68012A16D0022A1FD0032A02680C
:100CC00027D0136A6FF30B0313620268136ACC68B0
:100CD00023431362214B04681F4A9C4227D10C68AE
:100CE000122C20D023E0026853696FF30B03536189
:100CF00002685369CC6823435361EBE70268936948
:100D00006FF30B03936102689369CC68234393618B
:100D1000E0E7D3696FF30B03D3610268D369CC6852
:100D20002343D361D6E7546844F4800454600468D4
:100D30009C4208D10968102901D0112903D15168BA
:100D400041F400015160002180F83C10084670BD5C
:100D500001000F000000F0FF0023014000200140CF
:100D60002DE9F04104462DED048B01684548464DC0
:100D70009FED469ADFED469AF0EE008A6FF002068C
:100D800081423AD1434F38680069C043800732D46A
:100D90000121414800F08AF808EE100A02213E487D
:100DA00000F084F8F8EE480A95ED001A00EE100AFB
:100DB0003A4870EEC10AB8EE400A60EE890A20EEA9
:100DC000A91AD5ED010A30EE600A20EE090A60EE9C
:100DD000290A21EE280A60EEA80A80ED080AC0ED73
:100DE000060A30EE800AB1EE400A80ED070ABBEE3B
:100DF0000E0A03F095FA386806612949206888428E
:100E00003BD1284C20680069C043800733D40121BE
:100E1000254800F04BF808EE100A0221224800F0A5
:100E200045F8F8EE480A95ED021A00EE100A1B4844
:100E300070EEC10AB8EE400A2C3060EE890A20EE4E
:100E4000A91AD5ED030A30EE600A20EE090A60EE19
:100E5000290A21EE280A60EEA80A80ED080AC0EDF2
:100E6000060A30EE800AB1EE400A80ED070AB3EEC2
:100E70000E0A03F0F9FA20680661BDEC048BBDE8A8
:100E8000F08100000020014064FD00200000803956
:100E9000333353404801012078FD0020880C0120A5
:100EA0000021014068020120C0FD002008B5002299
:100EB00000920368521F1A60012911D002290CD038
:100EC000032906D0042901D0009808BD0068806C71
:100ED00001E00068406C009008BD0068006CFAE713
:100EE0000068C06BF7E7000018B50022009290F888
:100EF0003C10012907D0012180F83C1001688B6863
:100F0000DB0702D011E0022018BD8B6843F001031B
:100F10008B602649264B0968B1FBF3F101EB4101D7
:100F200000E0491E00910029FBD101688B68DB07B6
:100F300032D0036C42F20104A34343F480530364B0
:100F4000036CDB0500D4426480F83C206FF004029F
:100F50000A60184949680068C906816801F44011AF
:100F60000FD0B9B100214268134B42F38022521CCA
:100F7000984219D1C1B1BAB1816841F48001816050
:100F800012E029B10021426842F38022521CF1E7AD
:100F90000121F8E70121E6E7016C41F0100101644D
:100FA000416C41F001014164002018BD48FD002062
:100FB00040420F00002301400020014078B500248A
:100FC000009490F83C20012A19D0012280F83C209E
:100FD0000A6807250368092A13D9DE680A3A02EB72
:100FE00042029540AE43DE600A788B680A3A02EB13
:100FF000420293400268D5682B43D36010E0022080
:1010000078BD1E6902EB42029540AE431E610A782C
:101010008B6802EB42029340026815692B4313610F
:101020004A681F25072A13D203685E6B521E02EB23
:1010300082029540AE435E630A8893B20A79521EDB
:1010400002EB820293400268556B2B43536327E007
:1010500003680D2A12D21E6BD21F02EB820295404A
:10106000AE431E630A8893B20A79D21F02EB820252
:1010700093400268156B2B43136311E0DE6A0D3A4F
:1010800002EB82029540AE43DE620A8893B20A798F
:101090000D3A02EB820293400268D56A2B43D36279
:1010A000164B0568144A9D4206D10D68122D03D1D6
:1010B000556845F48005556005689D4218D10B6858
:1010C000102B01D0112B13D1536843F4000353604C
:1010D000096810290CD10A490A4A0968B1FBF2F1E2
:1010E00001EB8101490000E0491E00910029FBD17C
:1010F00080F83C40002078BD0023014000200140E2
:1011000048FD002040420F00704770470068C06CE7
:10111000704770B5044600680668456816F0020F0F
:1011200005F020022AD04AB3216CC90603D4216CF1
:1011300041F400712164816811F0405F17D1217E74
:10114000A9B9C16A11F4700F02D0816849050ED4A3
:10115000416821F020014160206C20F480702064FF
:10116000206CC00403D4206C40F0010020642046B1
:10117000FFF7CAFF21686FF01200086016F0040F35
:1011800005F0800132D089B3206CC00603D4206CF6
:1011900040F4005020642068816811F4401F1ED183
:1011A000816B11F4401F02D08168490517D4416852
:1011B000490514D4816811F0405F10D1217E71B9C6
:1011C000416821F080014160206C20F4805020644F
:1011D000206CC00503D4206C40F001002064204640
:1011E000FFF7BEFD21686FF00C00086016F0010FDC
:1011F00005F040010FD071B120680068C0070AD027
:10120000206C40F480302064204600F043F82168D0
:101210006FF00100086016F0200F05F080610ED01D
:1012200000290CD0606C40F00200606420686FF010
:10123000200505602046FFF768FF2068056070BD47
:1012400070B504004FF0000603D0206C002510B1EB
:1012500007E0012070BD204600F01EF8656484F8A8
:101260003C50206CC00610D4206C20F4885040F014
:10127000020020642046FFF7B5F86564206C20F07A
:10128000020040F00100206400E0012684F83C5098
:10129000304670BD70470000F0B587B00646142197
:1012A0006846FEF7D4FF4648444B31680025444A5F
:1012B00014380324434F994215D1116841F48071C9
:1012C0001160116801F480710591016841F001011C
:1012D00001600068694600F0010005901E208DE85D
:1012E0003100384619E0DFF8E0C0384B614520D1C5
:1012F000116841F400711160116801F400710591E9
:10130000016841F0040101600068694600F00400D2
:10131000059007208DE83100184600F023FC0022DC
:101320001146122000F094FF122000F083FF07B056
:10133000F0BDDFF89CC06145F9D1116841F48061CE
:101340001160116801F480610591016841F00401A8
:101350000160016801F004010591016841F001019B
:1013600001600068694600F00100059008208DE8E2
:101370003100184600F0F6FB01208DE83100694687
:10138000384600F0EFFB144C124820604FF08060AC
:10139000C4E901050014C4E9035040006061800005
:1013A000A0614011C4E907052046656200F05EFBBC
:1013B00008B1FFF7E9FAB463A663B0E70020014083
:1013C0004438024000000240002101400008024071
:1013D000002201402864024050FE00202DE9F04127
:1013E000044600680D4681684FF0000749050BD59B
:1013F0008068C00508D5206C40F02000206484F887
:101400003C700120BDE8F08100F09AFC064613E034
:10141000681C11D025B100F093FC801BA8420BD9A9
:1014200020680068800707D4206C40F00400206426
:1014300084F83C700320E5E7206800688007E7D562
:1014400021686FF012000860206C40F40070206486
:101450002068816811F0405F13D1217E89B9C16A8B
:1014600011F4700F02D0806840050AD4206C20F47B
:1014700080702064206CC00403D4206C40F0010014
:1014800020640020BEE7000018B50022009290F80A
:101490003C10012907D0012180F83C1001688B68BD
:1014A000DB0702D011E0022018BD8B6843F0010376
:1014B0008B602E492E4B0968B1FBF3F101EB410122
:1014C00000E0491E00910029FBD101688B68DB0711
:1014D00042D0036C40F20164A34343F4807303647D
:1014E0004B685B0505D5036C23F4005343F480532C
:1014F0000364036CDB0404D5436C23F006034364EC
:1015000000E0426480F83C201A4A6FF022030B602E
:1015100051680068CA06184906D0884224D18168FB
:1015200011F0405F13D01FE08842F8D0134A904278
:1015300003D1D1F80423D206F1D0114A904213D13D
:10154000D1F8041301F01F011029E8D30CE08168E1
:1015500041F08041816007E0016C41F010010164BD
:10156000416C41F001014164002018BD48FD00209C
:1015700040420F00002301400020014000210140B3
:101580000022014018B50022009290F83C10012979
:1015900007D0012180F83C1001688B68DB0702D07E
:1015A00011E0022018BD8B6843F001038B603149C4
:1015B000314B0968B1FBF3F101EB410100E0491E39
:1015C00000910029FBD101688B68DB0747D0036CD1
:1015D00040F20164A34343F4807303644B685B05EA
:1015E00005D5036C23F4005343F480530364036C68
:1015F000DB0404D5436C23F00603436400E042643B
:1016000080F83C201D4A6FF022030B6001684B6894
:101610001B4C23434B6051680068CA06194906D029
:10162000884224D1816811F0405F13D01FE08842C6
:10163000F8D0154A904203D1D1F80423D206F1D054
:10164000124A904213D1D1F8041301F01F0110295E
:10165000E8D30CE0816841F08041816007E0016CD3
:1016600041F010010164416C41F00101416400202E
:1016700018BD000048FD002040420F00002301403B
:101680002000000400200140002101400022014010
:1016900070B5040003D094F8200010B104E00120DC
:1016A00070BD204600F082F82068016841F0010119
:1016B000016000F045FB0546052604E000F040FB14
:1016C000401B0A2811D820684068C007F6D020685F
:1016D000016821F00201016000F032FB05460BE0D9
:1016E00000F02EFB401B0A2806D9606A40F4003047
:1016F000606284F82060D2E7206840688007EFD4F9
:10170000207E0128206801683DD021F08001016021
:10171000607E01282068016838D021F04001016016
:10172000A07E01282068016833D021F020010160EB
:10173000E07E0128206801682ED041F01001016090
:10174000207F01282068016829D021F0080101606C
:10175000607F01282068016824D021F00401016025
:10176000D4E902010843D4E9041211430843616833
:10177000491E08432168C86100206062012084F886
:101780002000002070BD41F08001C0E741F0400121
:10179000C5E741F02001CAE721F01001CFE741F091
:1017A0000801D4E741F00401D9E7000010B586B084
:1017B000044614216846FEF74AFD13492068884212
:1017C0001FD112480021026842F0007202600068D6
:1017D00000F0007005900D481038026842F00802D1
:1017E00002600068022200F0080005900320CDE9A5
:1017F0000210CDE90002092004906946044800F077
:10180000B1F906B010BD000000640040403802404D
:10181000000C02402DE9F0410446876D00F090FA7B
:10182000054694F835000026022806D08020606521
:1018300084F834600120BDE8F0812068016821F05F
:10184000160101602068416921F080014161206C2E
:1018500008B9A06C20B12068016821F0080101607E
:101860002068016821F0010101600CE000F068FAD5
:10187000401B052807D920206065032084F8350027
:1018800084F83460D7E720680068C007EED194F888
:101890005C103F208840B860012084F8350084F84F
:1018A00034600020C7E790F83510022903D080216A
:1018B000416501207047052180F8351000680168F6
:1018C00021F0010101600020704700002DE9F8437C
:1018D00004464FF00009CDF8009063484FF41651CC
:1018E000A56D0068B0FBF1F72E6894F85C20082124
:1018F00001FA02F030420FD02068026852070BD57F
:10190000026822F00402026094F85C008140A96041
:10191000606D40F00100606594F85C104FF00108C4
:1019200008FA01F0304208D021684969090604D557
:10193000A860606D40F00200606594F85C100420BF
:101940008840304208D021680968890704D5A8601A
:10195000606D40F00400606594F85C1010208840D1
:10196000304218D021680968090714D5A86020689A
:101970000168490304D50068000308D5A16C07E09D
:101980000168C90503D4016821F008010160216CD8
:1019900009B12046884794F85C10202088403042E6
:1019A00031D021680968C9062DD5A86094F83500A2
:1019B00005282068016806D0490347D50068000360
:1019C0001DD4616C1CE021F01601016020684169A2
:1019D00021F080014161206C08B9A06C20B1206821
:1019E000016821F00801016094F85C103F208840F4
:1019F000A86084F8358084F83490216D1FE0E16B95
:101A000009B120468847606D00282BD0606DC00763
:101A100014D0052084F835002068016821F0010108
:101A200001600098401C0090B84203D8206800680C
:101A3000C007F6D184F8358084F83490E16C002931
:101A400010D001B02046BDE8F04308470168C90541
:101A5000D5D4016821F01001016084F8358084F844
:101A60003490CCE7BDE8F88348FD00202DE9F04133
:101A7000044600F065F905465CB1022084F83500A3
:101A8000002684F834602068016821F001010160BB
:101A90000DE00120BDE8F08100F052F9401B05285F
:101AA00005D920206065032084F83500F2E720681E
:101AB0000068C007F0D121680A6820480240D4E9D4
:101AC00001031843D4E903352B43184363691843D2
:101AD000A3691843E3691843236A18431043626AF1
:101AE000042A03D1D4E90B231A4310430860206869
:101AF0004069656A20F0070128460D430127042844
:101B00000CD1A06A0543E06A40B12046FEF7F6FE1C
:101B100020B14020606584F83570BAE720684561DF
:101B20002046FEF7D7FE94F85C203F21914081606B
:101B3000666584F835700020ACE700003F8010F047
:101B400070B5044600F0FCF80546601C02D004485D
:101B50000078044400F0F4F8401BA042FAD370BDB2
:101B60003CFD00202DE9F84FDFF89C910022A9F1FF
:101B7000040B03274FF00F0C09F1040AABF1040E1C
:101B800001250B6895402B40AB426ED10C7904F0D7
:101B90000304012C01D0022C15D18668540007FAE9
:101BA00004F826EA0806D1F80C8008FA04F848EA96
:101BB0000608C0F808804468AC430D79C5F30015E9
:101BC0009540254345600C79E443A40708D0C568D7
:101BD000540007FA04F6B5438E68A6402E43C6604B
:101BE0000C7904F00304022C11D1D40800EB840614
:101BF000356A5407E40E0CFA04F825EA0805D1F812
:101C0000108008FA04F848EA0508C6F8208005683C
:101C1000540007FA04F6B5430E7906F00306A64011
:101C20002E4306604C6814F4403F66D0374C25685C
:101C300045F480452560246822F0030504F48044BF
:101C40000094334C05EB0408D8F808589407260F85
:101C50000CFA06F4A5432F4CA04201D1002424E045
:101C60002D4CA04202D101241FE046E02B4CA042A3
:101C700001D1022419E02A4CA04201D1032414E02E
:101C8000284CA04201D104240FE0274CA04201D1EE
:101C900005240AE0254CA04201D1062405E0244C8D
:101CA000A04201D1072400E00824B4402C43C8F826
:101CB0000848D9F800404D464E689C43F60200D5CE
:101CC0001C432C60DAF8004055464E689C43B6022F
:101CD00000D51C432C60DBF800405D464E689C43F9
:101CE000B60300D51C432C60DEF8004075464E68F4
:101CF0009C43F60300D51C432C60521C102AFFF4B1
:101D00003FAFBDE8F88F0000083C01404438024076
:101D10000030014000000240000402400008024080
:101D2000000C024000100240001402400018024063
:101D3000001C02400AB1816170470904FBE7000002
:101D400001488068704700003CFD002070B5040029
:101D500025D094F83D00002520B984F83C50204659
:101D600000F0BAF9242084F83D002068016821F0D1
:101D7000010101602068016841F4004101602068B0
:101D8000016821F40041016000F0CEFB4D4B616819
:101D9000994201D84C4900E04C49884201D20120C7
:101DA00070BD4B492268B0FBF1F1566826F03F0642
:101DB0000E43566062689A4206D94FF496725143B8
:101DC0004FF47A72B1FBF2F12268491C166A26F0D0
:101DD0003F06314311626168994210D84900401EA4
:101DE000B0FBF1F2521CC2F30B02042A01D2042010
:101DF00022E0B0FBF1F0401CC0F30B001CE0A26835
:101E0000F2B301EBC10303EB0116431EB3FBF6F380
:101E10005B1C43F480431B0549D092B301EBC10224
:101E200002EB0111401EB0FBF1F0401CC0F30B00AF
:101E300040F4804040F400402168CA694CF6FF73CA
:101E40009A431043C861D4E907100143206802682F
:101E500022F0C00211430160D4E90301014320686C
:101E6000826848F2FF339A4311438160D4E9051038
:101E700001432068C26822F0FF021143C16001E003
:101E80000EE016E02068016841F001010160256460
:101E9000202084F83D00256384F83E50002070BD6A
:101EA00001EB4106431EB3FBF6F35B1CB3E70120D5
:101EB000C2E701EB4101401EB0FBF1F0401CC0F352
:101EC0000B00B7E7A086010080841E0000093D00DA
:101ED00040420F002DE9FF4F83B09A46DDE911879C
:101EE00093460446DDF84090FFF72AFF054694F834
:101EF0003D00202870D11923012274492046009505
:101F000001F006FF0028F5D194F83C00012863D0C9
:101F1000012084F83C0020680168C90703D10168EA
:101F200041F0010101602068016821F40061016055
:101F3000222084F83D00402084F83E0000262664DC
:101F4000C4F82490A4F82A80608D20856048E0625F
:101F5000CDE9007553465A462046049901F05AFED1
:101F6000002879D1208DD0B1012821D00228206805
:101F700024D0416980690090208D032866D801280B
:101F80002BD0544902283B464FF00002009557D011
:101F90008846204601F0BCFE00285DD13AE020686A
:101FA000416981690091016841F4007101607DE03F
:101FB0002068016821F480610160F0E7016821F484
:101FC000806101602068016841F40061016020685F
:101FD00041698069009069E075E02A4639462046EB
:101FE00001F037FF88BB54E02068016841F40071BC
:101FF000016020680069616A0870606A401C606264
:10200000218D491E2185618D491E618521680969DF
:10201000017042E02068016821F48061016020685D
:102020000069616A0870606A401C6062208D401E11
:102030002085608D401E60853B460022414600950C
:10204000204601F065FE00B9CEE705E02A46394694
:10205000204601F0FEFE18B1012007B0BDE8F08F68
:1020600020680069616A0870606A401C6062208DA7
:10207000401E81B22185608D401E608520684269C6
:10208000D243520712D4032903D1016821F480619D
:10209000016020680069616A0870606A401C6062C3
:1020A000208D401E2085608D401E6085208D00287B
:1020B0007FF462AF202084F83D0084F83E6084F80D
:1020C0003C600020C9E70220C7E7000002001000C2
:1020D0000000FFFF04000100F0B587B004461421A2
:1020E0006846FEF7B4F82168224CDFF884C0002768
:1020F000204A1223032504261F481034614517D1B6
:10210000116841F002011160116801F002010591AE
:1021100029028DE88A00CDE903566946FFF722FDC2
:10212000206840F400102060206800F400101BE0DC
:10213000DFF848C0614518D1116841F00201116013
:10214000116801F0020105914FF440618DE88A00A9
:10215000CDE903566946FFF705FD206840F480008D
:102160002060206800F48000059007B0F0BD0000FA
:102170000054004030380240000402400058004043
:102180000248816802781144816070473CFD00205C
:102190000B4810B5016841F400710160016841F419
:1021A00080610160016841F480710160032000F0EA
:1021B0006FF80F2000F006F800F024F8002010BDA2
:1021C000003C024070B50D4D04464FF47A712878FA
:1021D000B1FBF0F00A490968B1FBF0F000F06BFDCB
:1021E00048B9102C07D200222146501E00F030F8CA
:1021F00000206C6070BD012070BD00003CFD00201F
:1022000048FD00200A4808B5016841F4804101609A
:10221000006800F4804000900548001F016841F00C
:1022200080510160006800F08050009008BD0000FF
:1022300044380240002809DB00F01F0201219140D0
:102240004009800000F1E020C0F800117047000054
:10225000F0B40E4B1B68C3F30223C3F10704042C34
:1022600000D904241D1D072D01D2002300E0DB1E30
:10227000012606FA04F56D1E0D409D409E40761E17
:10228000164045EA0601F0BC03F0F8BC0CED00E096
:10229000064A00F0070110684FF6FF03184040EAB5
:1022A0000120034908431060704700000CED00E076
:1022B0000000FA05F8B5040005D094F895042668E6
:1022C000002510B106E00120F8BD84F894542046A2
:1022D00000F056F8032084F89504B6F1A04F00D121
:1022E000A571206803F048FC207C8DF8000094E87C
:1022F0000F0003F01BFB0226B0BB0021206803F097
:102300007BFC88BB002101270CE001EBC10004EB42
:10231000800047750175C1850576C5610562491C58
:10232000C9B2456220798842EFD8002111E001EB63
:10233000C10004EB800080F8555280F8541280F8F8
:102340005852C0F85C52C0F86052491CC9B2C0F87B
:10235000645220798842EAD8207C8DF8000094E805
:102360000F0003F051FB10B184F89564ABE765747E
:1023700084F89574206803F039FB0020F8BD000054
:1023800010B586B0044614216846FDF760FF20684A
:10239000B0F1A04F27D115480021026842F0010298
:1023A0000260006800F0010005904FF4C0500090FA
:1023B0000220CDE90101032003900A200490694620
:1023C0000B48FFF7CFFB0948001D016841F0800171
:1023D000016006481430016841F4804101600068E2
:1023E00000F48040059006B010BD00003038024077
:1023F000000002402DE9F0470D46040065D0DFF8EB
:102400001491D9F80000EFB200F00700A84207D2FB
:1024100089F80070D9F8000000F00700A84254D1F4
:1024200020683D4E810712D5400703D5306840F43F
:10243000E05030602078000703D5306840F46040F9
:1024400030603068A16820F0F000084330602078E8
:10245000C0072DD0304960680839012812D0022801
:1024600013D0032811D00968890700292DDA3168B3
:1024700021F0030101433160FFF762FC804641F225
:10248000883A0EE009688903EFE709688901ECE7FB
:10249000FFF756FCA0EB0801514502D90320BDE827
:1024A000F0873068616800F00C00B0EB810FEFD16D
:1024B000D9F80010484601F00701A94207D9077072
:1024C000006800F00700A84201D00120E7E720786B
:1024D000400705D53068E16820F4E05008433060DB
:1024E0002078000706D53068216920F4604040EA72
:1024F000C100306000F038F83168084AC1F30311B8
:10250000515CC8400649086006480068FFF75AFE5B
:102510000020C4E7003C0240083802401C63000869
:1025200048FD002040FD0020044805490068096876
:10253000044AC1F38221515CC840704748FD002025
:10254000083802402C6300080448054900680968FF
:10255000044AC1F34231515CC840704748FD002035
:10256000083802402C630008154810B5006810F0C8
:102570000C01144813D0144B04290FD008290ED194
:102580000F4C241F216801F03F022168490207D542
:102590002068C0F38810A0FB030106E0184610BDB8
:1025A0002168C1F38811A1FB00010023FDF708FE9B
:1025B0002168C1F30141491C4900B0FBF1F010BD95
:1025C000083802400024F40040787D012DE9F84FDE
:1025D000040075D02078DFF838A3C007AAF10405FD
:1025E00048D00AF104000168C1F38101012908D033
:1025F0000068C0F3810002280AD1DAF80000400226
:1026000006D52868800335D560680028E1D031E020
:102610006068B0F5803F10D0B0F5A02F286810D0CA
:1026200020F480302860286820F4802028606068CA
:10263000A0B1FFF785FB06460CE0286840F4803027
:10264000F4E740F480202860F7E7FFF779FB801B70
:10265000642871D828688003F7D50BE0FFF770FB7A
:10266000064604E0FFF76CFB801B6428F1D828685D
:102670008003F7D42078DFF89C9280074FF0000B9E
:102680003DD5A348001D016811F00C0F08D000686B
:10269000C0F3810002280AD1DAF80000400206D413
:1026A0002868800715D5E068012809D111E0E068A5
:1026B000B8B10120C9F80000FFF742FB064605E06B
:1026C00022E1FFF73DFB801B0228C2D82868800763
:1026D000F7D52868216920F0F80040EAC100286099
:1026E0000DE0C9F800B0FFF72BFB064604E0FFF74A
:1026F00027FB801B02281FD828688007F7D4207882
:10270000000722D5824F84486169703771B1012179
:102710000160FFF715FB064604E0FFF711FB801B85
:10272000022809D838688007F7D50EE0C0F800B055
:10273000FFF706FB064605E082E0FFF701FB801B82
:1027400002287DD838688007F7D42078400765D5FF
:102750006F484FF000083C300068C0000BD46C4854
:102760003C30016841F08051016000684FF0010881
:1027700000F080500090694F3868C0050FD4386869
:1027800040F480703860FFF7DBFA064604E0FFF79C
:10279000D7FA801B022853D83868C005F7D55C4F9C
:1027A000A0686C3701280FD00528386810D020F0B9
:1027B00001003860386820F004003860A068B0B1CB
:1027C000FFF7BEFA06460EE0386840F00100F4E775
:1027D00040F004003860F7E7FFF7B2FA811B41F2DE
:1027E0008830814263D838688007F5D50DE0FFF75F
:1027F000A7FA064606E0FFF7A3FA811B41F28830EC
:10280000814254D838688007F5D4B8F1000F05D05C
:102810003F483C30016821F080510160A069B8B3A5
:102820003B49091D0968C1F38101022946D00228EC
:10283000584606D0C9F86000FFF782FA044639E02E
:1028400035E04F46C9F86000FFF77AFA064604E023
:10285000FFF776FA801B022829D828688001F7D470
:10286000D4E907010843A16A2D4A490802EB014156
:10287000626A41EA8211084394F82C1040EA01612F
:10288000CAF8001001203866FFF75AFA044605E03E
:102890003CE0FFF755FA001B022808D828688001A1
:1028A000F7D533E0FFF74CFA001B022802D90320CA
:1028B000BDE8F88F28688001F4D427E00128F7D01C
:1028C000DAF80000E26900F4800191421CD1226A2A
:1028D00000F03F01914217D147F6C071626A014092
:1028E000B1EB821F10D1A26A4FF0FF3300F44031E8
:1028F00003EB5202B1EB024F06D194F82C1000F01A
:102900007060B0EB016F01D00120D1E70020CFE76C
:102910000438024000004742800E474200700040E9
:102920000000FFFF70B5040009D0606A002540B1C7
:1029300025616561A56294F8510040B10CE0012069
:1029400070BD6068B0F5827FF4D0E561F2E784F88D
:102950005050204600F044F8022084F851002068CE
:10296000016821F040010160A088218900F4827093
:1029700001F404410843A18901F400610843217C6A
:1029800001F002010843217D01F001010843218B80
:1029900001F400710843217F01F03801084394F8E5
:1029A000201001F080010843218D01F400510843FB
:1029B00021680860A069042101EA104094F82410FD
:1029C00001F010010843216848602068C16921F4C2
:1029D0000061C1616565012084F85100002070BD6F
:1029E0002DE9F04F87B0054614216846FDF72FFC0E
:1029F000DFF838C1286800264D4902220323052448
:102A0000DFF830B140274FF480694FF4807A604599
:102A100031D147481430D0F800C04CF4805CC0F885
:102A200000C0006800F480500590086840F0020083
:102A300008600868694600F00200059028208DE8CB
:102A40004500CDE903345846FFF78CF83B4C3A4833
:102A500020604FF0C0606060C4E90276C4E904966B
:102A6000C4E9066A26622046666236E0AC64A56365
:102A700007B0BDE8F08FDFF8C880DFF8B4C040458C
:102A80000CF1100C30D1DCF8000040F48040CCF8A0
:102A90000000DCF8000000F480400590086840F079
:102AA000020008600868694600F0020005904FF4D3
:102AB00060408DE84500CDE903345846FFF752F8F1
:102AC0001E4C2048603484E8C100C4E90369666193
:102AD000C4E9066A266220466662FEF7C7FF002840
:102AE000C4D0FDF751FFC1E7174CA042C0D1DCF8BC
:102AF000000040F40040CCF80000DCF8000000F4D6
:102B000000400590086840F00400086008686946C5
:102B100000F0040005904FF4E0508DE845000620D9
:102B2000CDE903300948FFF71DF8A1E70030014067
:102B300030380240000402405864024088000120FE
:102B40000038004070600240003C00400008024035
:102B50002DE9F84F1D4617468A460446FFF7F0F860
:102B6000064694F85100012826D1BAF1000F77D01B
:102B7000002F75D094F8500001281DD04FF00109A6
:102B800084F85090032084F851004FF00008C4F8F6
:102B90005480C4F830A0A786E786C4F83880A4F82B
:102BA0003C80A4F83E80C4F84480C4F84080A0680B
:102BB000B0F5004F03D00CE00220BDE8F88F20688C
:102BC000016821F0400101602068016841F4804102
:102BD000016020680168490603D4016841F04001A2
:102BE0000160E068B0F5006F606803D028B3012F82
:102BF00023D03FE008B1012F1BD1206B2168008852
:102C0000C86006E020688168890709D5216B0988BA
:102C1000C160206B801C2063E08E401EE08608E0CF
:102C2000FFF78EF8801BA84202D3681C01D02FE06A
:102C300075B3E08E0028E5D11FE0206B2168007895
:102C4000087306E02068816889070AD5216B097836
:102C50000173206B401C2063E08E401EE08609E07B
:102C600027E0FFF76DF8801BA84202D3681C01D053
:102C70000EE06DB1E08E0028E4D1324629462046B0
:102C800002F094F908B120206065A06830B109E035
:102C900084F8519084F8508003208EE72068C16842
:102CA0008068009084F8519084F85080606D00280E
:102CB00083D0012081E710B5401EB0F1807F01D3A1
:102CC000012010BD4FF0E02460610F21601702F079
:102CD000D5FF0020A06107202061002010BD7047B3
:102CE000704710B590F83C20012A22D0012280F8CC
:102CF0003C20CA688C6822F4407222434C6822F45B
:102D0000806222430C6822F4006222430C6922F4A0
:102D1000805222434C6922F400522243C9690023A5
:102D200022F480420A4301684A6480F83C30002063
:102D300010BD022010BD000070B590F83C20012AA3
:102D400032D0012580F83C50022280F83D200268F4
:102D50005368946823F070060B6833435360134B39
:102D600002689A4214D0B2F1804F11D0104B9A42AF
:102D70000ED0104B9A420BD00F4B9A4208D00F4BFB
:102D80009A4205D00E4B9A4202D00E4B9A4204D181
:102D9000496824F080031943916080F83D50002178
:102DA00080F83C10084670BD022070BD0000014054
:102DB0000004004000080040000C004000040140F6
:102DC000004001400018004010B5044649B10429F4
:102DD0000AD008290BD094F8450001280AD0012018
:102DE00010BD94F84200F8E794F84300F5E794F832
:102DF0004400F2E7022091B3042934D0082935D0E9
:102E000084F845000422206802F097FA2068416C9B
:102E100041F40041416417492068884214D0B0F160
:102E2000804F11D0144988420ED0144988420BD0EB
:102E30001349884208D01349884205D01249884274
:102E400002D01249884204D1816801F007010629A5
:102E500003D0016841F001010160002010BDFFE7CF
:102E600084F84200CEE784F84300CBE784F84400BE
:102E7000C8E70000000001400004004000080040D6
:102E8000000C0040000401400040014000180040D8
:102E900010B5040003D094F83D0010B107E0012004
:102EA00010BD002084F83C00204600F01FF80220EE
:102EB00084F83D00211D206802F0C6F9012084F845
:102EC000460084F83E0084F83F0084F8400084F80F
:102ED000410084F8420084F8430084F8440084F8F8
:102EE000450084F83D00002010BD000038B50546BF
:102EF000364A01680020364B91420ED1186840F0E6
:102F0000010018601868002200F001000090012103
:102F10001A20FFF79DF91A2054E02D4A121FB1F133
:102F2000804F0BD02B4CA14210D1106840F0020012
:102F30001060106800F00200009038BD106840F08A
:102F400001001060106800F00100F5E7224CA1427A
:102F500027D1116841F0040111601168204C01F083
:102F6000040100911D4921608905C4E9011009147B
:102F7000C4E90301490061618900A1614911C4E903
:102F8000071060622046FEF771FD08B1FDF7FCFCFA
:102F90006C62002211461E20A563FFF759F91E201E
:102FA00010E010488142C8D1186840F00200186053
:102FB0001868002200F00200009001212D20FFF788
:102FC00047F92D20BDE83840FFF734B90000014033
:102FD00044380240000400400008004010600240F5
:102FE000B00201200004014090F83D10012901D0F9
:102FF00001207047022180F83D1000681149884285
:1030000014D0B0F1804F11D00F4988420ED00F4933
:1030100088420BD00E49884208D00E49884205D01C
:103020000D49884202D00D49884204D1816801F0DF
:103030000701062903D0016841F001010160002069
:1030400070470000000001400004004000080040FC
:10305000000C004000040140004001400018004006
:1030600090F83D10012901D001207047022180F81D
:103070003D100168CA6842F00102CA600068114947
:10308000884214D0B0F1804F11D00F4988420ED041
:103090000E4988420BD00E49884208D00D4988421B
:1030A00005D00D49884202D00C49884204D181687C
:1030B00001F00701062903D0016841F00101016018
:1030C000002070470000014000040040000800405C
:1030D000000C004000040140004001400018004086
:1030E00070B5044690F83C000025012817D0012651
:1030F00084F83C60022084F83D002068826822F059
:10310000770222F47F4282600868502838D00DDCB4
:1031100020284FD005DC90B3102811D14AE00220BE
:1031200070BD302846D040280AD13BE060282FD01F
:1031300070280DD0B0F5805F03D0B0F5005F12D0DD
:10314000012584F83D60002084F83C00284670BDCD
:10315000CB68D1E90121206802F0FCF82068816881
:1031600041F0770109E0CB68D1E90121206802F044
:10317000F1F82068816841F480418160E1E719E05D
:10318000CA684968206802F021FA5021206806E0E8
:10319000CA684968206802F02AFA6021206802F0B3
:1031A000E3F8CEE7CA684968206802F00FFA4021C8
:1031B0002068F4E7226801461046F0E770472DE9E1
:1031C000F04104460068C66805694FF00007A9078A
:1031D00013D5B10711D5F91E0161012020772068B0
:1031E00080698007204602D0FFF7E8FF04E000F086
:1031F0002FF9204600F0C1F92777680716D5700728
:1032000014D521686FF0040008610220207720683F
:10321000806910F4407F204602D0FFF7CFFF04E022
:1032200000F016F9204600F0A8F92777280715D5F1
:10323000300713D521686FF008000861042020775B
:103240002068C0698007204602D0FFF7B7FF04E07E
:1032500000F0FEF8204600F090F92777E80616D532
:10326000F00614D521686FF010000861082020775F
:103270002068C06910F4407F204602D0FFF79EFF0F
:1032800004E000F0E5F8204600F077F92777E8073A
:1032900008D0F00706D021686FF0010008612046D1
:1032A00000F0D4F9280608D5300606D521686FF05D
:1032B000800008612046FFF712FD680608D57006F9
:1032C00006D521686FF040000861204600F014FA2E
:1032D000A8060AD5B00608D521686FF0200008615D
:1032E0002046BDE8F041FFF7FBBCBDE8F0810000DF
:1032F0002DE9F04186B0044614216846FCF7A7FF8B
:103300004A4A206800244A490225904212D108689E
:1033100040F0100008600868694600F01000059051
:103320004FF47C500090CDE901540120CDE90340D9
:10333000404827E0404B414ADFF80481984226D1BB
:10334000086840F001000860086800F0010005907E
:10335000086840F0040008600868694600F004004E
:10336000059080200090CDE901541046CDE9034539
:10337000FEF7F8FB4FF400700090CDE90154694668
:10338000404616E0FEF7EEFB06B0BDE8F0812D4B9F
:103390002D4E984210D1086840F00200086008687D
:1033A000694600F00200059040200090CDE90154EC
:1033B0003046CDE90345E5E7244B9842E4D108685F
:1033C00040F001000860086800F0010005900868FE
:1033D00040F002000860086800F0020005900868EC
:1033E00040F0040008600868032700F0040005901E
:1033F00020200090CDE90154CDE9034769461046ED
:10340000FEF7B0FB0097CDE90154CDE903476946CB
:103410003046FEF7A7FB4FF4E0700090CDE9015471
:10342000CDE9034769464046ACE700000000014093
:10343000303802400010024000040040000002400A
:10344000000802400008004000040240000401405F
:10345000704770B5044690F83C0000260D460128E0
:103460000FD0012084F83C006AB1042A1DD0082A3C
:103470002FD00C2A3FD00126002084F83C00304693
:1034800070BD022070BD206801F076FF2068816960
:1034900041F0080181612068816921F004018161A6
:1034A000206881692A69114311E0206801F094FFC6
:1034B0002068816941F4006181612068816921F49B
:1034C00080618161206881692A6941EA0221816104
:1034D000D2E7206801F0B6FF2068C16941F0080119
:1034E000C1612068C16921F00401C1612068C1691E
:1034F0002A69114311E0206801F0D8FF2068C169F2
:1035000041F40061C1612068C16921F48061C16139
:103510002068C1692A6941EA0221C161ACE710B59E
:10352000040003D094F83D0010B107E0012010BD65
:10353000002084F83C00204600F01EF8022084F8A9
:103540003D00211D206801F07FFE012084F8460027
:1035500084F83E0084F83F0084F8400084F841007D
:1035600084F8420084F8430084F8440084F845005D
:1035700084F83D00002010BD7047704710B5044628
:1035800049B104290AD008290BD094F84100012838
:103590000AD0012010BD94F83E00F8E794F83F00EF
:1035A000F5E794F84000F2E70220B1B3042938D0DF
:1035B000082939D084F841000122206801F0B0FECA
:1035C0001B4920681B4A884201D0904203D1436CBA
:1035D00043F4004343642068884213D0B0F1804F25
:1035E00010D0154988420DD0144988420AD0144998
:1035F000884207D0904205D01249884202D0124931
:10360000884204D1816801F00701062903D00168CE
:1036100041F001010160002010BDFFE784F83E0089
:10362000CAE784F83F00C7E784F84000C4E7000019
:103630000000014000040140000400400008004078
:10364000000C0040004001400018004010B5234924
:103650002DED028B006888423CD10421204801F006
:1036600086FC00EE100A9FED208A1E4CB8EE400A40
:10367000DFED1E0AE08020EE080A84ED030A20EE4A
:10368000200ABCEEC00A10EE100A80B2A080218889
:103690004143642091FBF0F0154980B260800968D5
:1036A0004A6B824200D048630021124801F05FFC5F
:1036B00000EE100AF2EE060A2081B8EE400A0D2153
:1036C0000C4820EE080A20EE200A84ED040A01F0DE
:1036D0004EFC6081BDEC028B10BD00000008004074
:1036E00078FD002000000020333353389B6CF241FA
:1036F0002002012008FE002070477047704700003C
:10370000F8B5016804460868CA684B6910F00F0FE5
:103710004FF0000559D003F0010602F490773743CB
:1037200065D0C10705D0D10503D5616C41F0010119
:103730006164410705D5D90703D0616C41F00201EE
:103740006164810705D5D90703D0616C41F004019C
:103750006164010707D502F02001314303D0616C99
:1037600041F008016164616C00293AD0800604D5FB
:10377000900602D5204601F07BFF20684069616C0D
:10378000C0F38010090700D460B3204601F049FF60
:1037900020684069400621D52068143050E8001F99
:1037A00021F0400140E80012002AF5D1E06BA8B1F9
:1037B0006E490165E06BFEF776F8002811D0E06BEA
:1037C000016D01B0BDE8F040084783060FD59306B0
:1037D0000DD52046BDE8F84001F04ABF2046FFF76E
:1037E0008DFFF8BD2046FFF789FF6564F8BD266BA5
:1037F0002023012E7DD1C6067BD5D60679D5086853
:103800004868009048694FF00206400641D5E16BD8
:10381000086840680004000CE8D0A28D8242E5D917
:10382000E085C869B0F5807F2DD020680C3050E865
:10383000001F21F4807140E80012002AF5D12068B1
:10384000143050E8001F21F0010140E80012002A66
:10385000F5D12068143050E8001F21F0400140E805
:103860000012002AF5D184F84230256320680C301C
:1038700050E8001F21F0100140E80012002AF5D1A5
:10388000E06BFDF7C7FF6663A08DE18D401A81B242
:103890002AE0A08DE18D401A81B2E08D0028A5D0EC
:1038A0000029A3D020680C3050E8002F22F4907239
:1038B00040E80027002FF5D12068143050E8002F91
:1038C00022F0010240E80027002FF5D184F84230B1
:1038D000256320680C3050E8002F22F0100240E8E9
:1038E0000023002BF5D166632046FFF706FFF8BDE5
:1038F000FFE705062BD5150629D594F841002128A8
:10390000F5D1A068B0F5805F01D12069B0B1206A1F
:10391000411C2162216800784860E08C401E000450
:10392000000CE084E3D12068C16821F08001C1600F
:103930002068C16841F04001C160D8E7206A008872
:10394000C0F308004860206A801C2062E5E740065A
:10395000CDD55006CBD5CA68204622F04002CA60B9
:1039600084F8413000F03DF9C1E70000135600082B
:1039700070B5040004D094F84100002510B106E0B1
:10398000012070BD84F84050204600F023F8242028
:1039900084F841002068C16821F40051C1602046CC
:1039A00001F0C8FE2068016921F49041016120689E
:1039B000416921F02A0141612068C16841F4005148
:1039C000C1606564202084F8410084F8420065638A
:1039D000002070BD70B586B0044614216846FCF71F
:1039E00036FC264E206800252549022203230724A1
:1039F000B04224D122481430066846F01006066012
:103A0000006800F010000590086840F001000860B0
:103A10000868694600F00100059058028DE825000D
:103A2000CDE903341748FEF79DF800220221252036
:103A3000FEF70EFC2520FEF7FDFB06B070BD124E12
:103A4000B042FAD10E481030066846F400360660DF
:103A5000006800F400300590086840F00800086035
:103A60000868694600F00800059070208DE8250080
:103A7000CDE903340548FEF775F8DEE70010014094
:103A8000303802400000024000440040000C024078
:103A90002DE9F84F044690F84200984615460E4628
:103AA000202802D00220BDE8F88FBEB1B5B10020B9
:103AB0006064222184F842102063FEF741F9A58555
:103AC0008246E585A0684FF480574FF02009B84240
:103AD00001D1206920B13546002628E00120E2E727
:103AE000002524E05346002220212046CDF8008006
:103AF00001F0A6FE18B184F842900320D3E725B167
:103B0000A068B84219D038B108E020684068C0F316
:103B1000080026F8020B07E0206970B120684068B1
:103B200000F07F0005F8010BE08D401EE085E08D80
:103B30000028D7D184F84290B5E720684068F1E7C3
:103B400070472DE9F843044690F841001F4615469A
:103B50000E46202802D00220BDE8F8838EB185B140
:103B600000206064212084F84100FEF7E9F8A58474
:103B70008146E584A0684FF02008B0F5805F02D050
:103B800003E00120E8E7206910B1354600260EE089
:103B900000250CE08021204601F052FEA0B9BDB105
:103BA00015F8010B21684860E08C401EE084E08C31
:103BB0004B464FF0000200970028EBD14FF0400138
:103BC000204601F03DFE40B184F841800320C3E768
:103BD00036F8020BC0F30800E4E784F841800020C7
:103BE000BAE77047FEE701684A69D24352050FD42D
:103BF0006FF480624A61002140F8301F2022427336
:103C00008173026942F0040202610173012070476E
:103C1000002070472DE9F84F0446006889460B9E46
:103C200001689846174641F4806101602068016888
:103C300041F48071016000964FF0011B002259464B
:103C400020460A9B00F064F84FF4007A40B12068E7
:103C50000068C00501D5C4F840A00320BDE8F88F76
:103C6000216809F0FE0008613346284920460A9A77
:103C700000F092F8F0BB20684169806900903246FC
:103C800020460A9900F01FF940B1206C04283AD16F
:103C90002068016841F40071016034E0FDB2B8F1C0
:103CA000010F09D02168380A0861324620460A9976
:103CB00000F009F90028E8D1206805613246204665
:103CC0000A9900F000F90028DFD12068016841F46A
:103CD0008071016000960022594620460A9B00F040
:103CE00017F80028B3D1216809F0FF0040F0010067
:103CF000086100E007E03346044920460A9A00F0D4
:103D00004BF80028AAD00120A8E70000020001001B
:103D10002DE9F0471E4690460D460446C1F307477D
:103D2000DDF8209026E0701C24D0FEF709F8A0EB07
:103D30000900B04200D8EEB92068012F16D0806982
:103D400025EA00000004000C12D00020404511D1EB
:103D5000002044F8300F20216173A073216941F0E5
:103D60002001216120730120BDE8F0874069E7E769
:103D70000120EBE72068012F0AD0806925EA0000C6
:103D80000004000C06D000204045CCD00020EBE71A
:103D90004069F3E70120F7E72DE9F047984616461A
:103DA0000D4604464FF000094FF0200AC1F30747C3
:103DB00023E020684069C043400515D420680168AD
:103DC00041F40071016021686FF480604861C4F8BB
:103DD000309084F83DA084F83E90216C41F00401BD
:103DE000216484F83C9020E0701C06D0FDF7A8FF09
:103DF000A0EB0800B04203D816B1012F1ED020E07E
:103E00002068012F14D0806925EA00000004000C0E
:103E100017D044F8309F84F80DA084F80E902169E3
:103E200041F02001216184F80C900120BDE8F08769
:103E3000406925EA00000004000CEAD120684069CE
:103E400001E02068806925EA00000004000CB0D180
:103E5000ECE72DE9F04116460D46044600274FF0E9
:103E6000200829E04069C043C0060DD454F8301B37
:103E70006FF01000486144F80D7B04F81D89A777A6
:103E8000206A2062277714E0FDF75AFF801BA842C2
:103E900000D88DB920684069C04340060CD544F86D
:103EA000307F84F80D80A773206940F020002061E6
:103EB00027730120BDE8F08120684169C9434906A4
:103EC000D0D40020F6E770B516460D4604461EE035
:103ED0002046FFF788FE08B1012070BD681C16D08F
:103EE000FDF72EFF801BA84200D885B920684069E5
:103EF000C04300060BD5002044F8300F2021617329
:103F0000A073216941F0200121612073E4E720685A
:103F10004069C0430006DBD4002070BD2DE9F041AC
:103F200004461F4615460E462A2000F061F9283443
:103F3000C4F3072000F06AF9E0B200F067F9283511
:103F4000C5F3072000F062F9E8B200F05FF92B201A
:103F500000F04EF93536C6F3072000F057F9F0B2FD
:103F600000F054F93537C7F3072000F04FF9F8B2E5
:103F700000F04CF9BDE8F0412C2000F039B9000008
:103F800070B5050AC4B200218623EF220846FFF768
:103F9000C5FF0F4900204FF4A27201F8105001EB49
:103FA0004003401C80B25C709042F6D30122102185
:103FB0000848FDF7BFFE00244FF422752946044847
:103FC00000F0E0F8641CA4B2642CF7D370BD0000CC
:103FD000E80801200004024010B5694C00220821C5
:103FE0002046FDF7A7FE0C20FDF7AAFD01220821BF
:103FF0002046FDF79FFE0C20FDF7A2FD112000F0EA
:10400000F7F80C20FDF79CFD362000F0F1F8602059
:1040100000F0FCF83A2000F0EBF8652000F0F6F82C
:10402000B22000F0E5F80C2000F0F0F80C2000F0D1
:10403000EDF8002000F0EAF8332000F0E7F8332034
:1040400000F0E4F8B72000F0D3F8722000F0DEF8BA
:10405000BB2000F0CDF83D2000F0D8F8C02000F0E3
:10406000C7F82C2000F0D2F8C22000F0C1F80120DF
:1040700000F0CCF8C32000F0BBF8192000F0C6F81F
:10408000C42000F0B5F8202000F0C0F8C62000F0F1
:10409000AFF80F2000F0BAF8D02000F0A9F8A42063
:1040A00000F0B4F8A12000F0B1F8E02000F0A0F892
:1040B000D02000F0ABF8042000F0A8F80D2000F0AC
:1040C000A5F8112000F0A2F8132000F09FF82B2093
:1040D00000F09CF83F2000F099F8542000F096F88A
:1040E0004C2000F093F8182000F090F80D2000F01C
:1040F0008DF80B2000F08AF81F2000F087F82320AD
:1041000000F084F8E12000F073F8D02000F07EF891
:10411000042000F07BF80C2000F078F8112000F06B
:1041200075F8132000F072F82C2000F06FF83F2093
:1041300000F06CF8442000F069F8512000F066F8B7
:104140002F2000F063F81F2000F060F81F2000F01F
:104150005DF8202000F05AF8232000F057F82120C5
:1041600000F046F8292000F043F800218623EF22D2
:104170000846FFF7D3FEBDE810400020FFF700BF60
:10418000000C024000F00ABF2DE9F0411446051969
:10419000069E1F468446F02D26D8C819872823D8A6
:1041A000401E83B26D1EAAB26046FFF7B7FE012221
:1041B00010210E48FDF7BEFD4FF480307C43451EB4
:1041C000B0EB440F09DC29463046FFF7DBFF012046
:1041D00000EB440081B2701902E005EA4401304668
:1041E000BDE8F041FFF7CEBFBDE8F081000402401A
:1041F00001B5002210210448FDF79CFD012168460D
:10420000FFF7C0FF08BD00000004024001B5012215
:1042100010210448FDF78EFD01216846FFF7B2FF2B
:1042200008BD00000004024010B5284928482DEDC3
:10423000028BF0EE408AFCF773F92548808800EE87
:10424000100AB8EE400A00F04DF8224CB0EE408A59
:1042500004F1100194EC030A081F183CFCF7F4FA6F
:10426000D4ED0A0A94ED090A04F10C01201DB0EE08
:10427000481A00F057FE94ED030A174800F0EEFDCF
:1042800084ED030AF0EE400AB0EE680AFCF761FB29
:10429000114884ED030AF0EE400AB0EE680A38389F
:1042A00000F0FEFD0D48F1EE400AC4ED050A90ED68
:1042B000000AF0EE481ABDEC028BB8EEC00ABDE869
:1042C00010409FED071A00F005BF0000D8FE002047
:1042D000E00B0120A00C0120A80B0120300C0120D4
:1042E000000000000B48D0ED000A30EE600AF0EE4E
:1042F000000A20EE200ADFED080A20EE200ADFED9A
:10430000070A20EE200AF1EE0C0A20EE200A01F046
:10431000EBBF00004CFD0020DB0F4940000080395E
:1043200010B5104910482DED028BB0EE408AFCF715
:10433000F7F80D48FCF7BCFB0B4C0C4894ED050A54
:1043400000F08CFD0948D4ED050AB0EE480A383873
:1043500000F0A6FDBDEC028BB1EE400ABDE81040B6
:10436000FFF762BFD8FE0020E00B0120C40B012044
:1043700010B5284928482DED028BF0EE408AFCF755
:10438000CFF82548808800EE100AB8EE400A00F009
:104390004DF8224CB0EE408A04F1100194EC030A6F
:1043A000081F183CFCF750FAD4ED0A0A94ED090AEC
:1043B00004F10C01201DB0EE481A00F0B3FD94ED9D
:1043C000030A174800F04AFD84ED030AF0EE400AA4
:1043D000B0EE680AFCF7BDFA114884ED030AF0EE6E
:1043E000400AB0EE680A383800F05AFD0D48F1EE88
:1043F000400AC4ED050A90ED000AF0EE481ABDEC43
:10440000028BB8EEC00ABDE810409FED071A00F01D
:1044100061BE00002CFF0020080C0120CC0C012004
:10442000A80B01205C0C0120000000000B48D0ED1F
:10443000010A30EE200AF8EE000A20EE200ADFED35
:10444000080A20EE200ADFED070A20EE200AF1EE2E
:104450000C0A20EE200A01F047BF00004CFD0020AE
:10446000DB0F49400000803910B50F490F482DED92
:10447000028BB0EE408AFCF753F80C48FCF718FBAF
:104480000A4C0B4894ED050A00F0E8FC0848D4ED0E
:10449000050AB0EE480A383800F002FDBDEC028B88
:1044A000BDE81040FFF764BF2CFF0020080C01207E
:1044B000C40B012030B58DB00024089409940A94EF
:1044C000202168460B94FBF7C2FE294827490125A5
:1044D00001604FF480310561C0E90114047680F871
:1044E00020402449C0E90A14C902C561C16080F8AE
:1044F00030404561FCF7A4FE08B1FCF745FA042002
:10450000CDE9080508A91A480A95FCF757FD08B136
:10451000FCF73AFA019500954FF480100294CDE92A
:10452000064003258DF8154004958DF81440694622
:104530000F480394FCF736FB08B1FCF725FA02207C
:104540000090019069460A48FCF72CFB08B1FCF783
:104550001BFA0095694606480195FCF723FB0028E5
:1045600001D0FCF711FA0DB030BD00000020014071
:1045700078FD00200100000F70B58CB00024089475
:1045800009940A94202168460B94FBF760FE2C489E
:104590002A49012501604FF480310561C0E9011409
:1045A000047680F820400903C1624FF060618162A7
:1045B000E902C561C16080F830404561FCF740FE0A
:1045C00008B1FCF7E1F90A260896CDE9095408A9D3
:1045D0001B48FCF7F3FC08B1FCF7D6F9CDE9006500
:1045E0004FF48010029407904FF46020032506904A
:1045F0008DF8154004958DF81440694610480394D1
:10460000FCF7D0FA08B1FCF7BFF90B2000900220AC
:10461000019069460A48FCF7C5FA08B1FCF7B4F9FD
:104620000C20CDE9000569460548FCF7BBFA0028D7
:1046300001D0FCF7A9F90CB070BD000000210140C9
:10464000C0FD00207FB500211A4800910191029120
:10465000174A0391026001244FF480320461C0E9DB
:104660000121047680F82010C1621349816202257D
:10467000C902C561C16080F830404461FCF7E0FDCB
:1046800008B1FCF781F90D20CDE90004694609481D
:104690000294FCF793FC08B1FCF776F969460548EB
:1046A0000195FCF78BFC002801D0FCF76DF97FBD6C
:1046B0000022014008FE00200100000F0D4810B547
:1046C0000B4901601021416000218160C1600161DE
:1046D0004161017641768176C17601774177FCF7B9
:1046E000D7FF002803D0BDE81040FCF74DB910BD3E
:1046F00000640040B0FE0020194808B5016841F48C
:1047000080010160016801F480010091016841F4B9
:10471000001101600068002200F4001000901146B2
:104720000B20FDF795FD0B20FDF784FD00220321F2
:104730000F20FDF78DFD0F20FDF77CFD00221146B7
:104740003920FDF785FD3920FDF774FD0022032196
:104750003B20FDF77DFDBDE808403B20FDF76ABD2D
:10476000303802402DE9F04F87B014216846FBF73E
:104770006EFD3C480024016841F0100101600168B1
:1047800001F010010591016841F004010160016828
:1047900001F004010591016841F0800101600168A8
:1047A00001F080010591016841F00101016001689B
:1047B00001F001010591016841F002010160016809
:1047C00001F002010591016841F0080101600068F3
:1047D000DFF8948000F00800059000227C2140461C
:1047E000FDF7A8FADFF884904EF2884600223146A1
:1047F0004846FDF79FFADFF878A04FF40047002203
:1048000039465046FDF796FADFF868B000221021CD
:104810005846FDF78FFA7C2000900125CDE9015420
:10482000694640460394FDF79DF90096CDE9015491
:10483000694648460394FDF795F90097CDE9015480
:10484000694650460394FDF78DF910200090CDE99C
:104850000154694658460394FDF784F907B0BDE852
:10486000F08F00003038024000100240000C02407F
:1048700000000240000402400D4810B50B490160E1
:104880000C49416000214FF480428160C0E903126D
:1048900041618161C1610162FDF758FA002803D0CE
:1048A000BDE81040FCF770B810BD00000054004097
:1048B000D8FE0020A08601000D4810B50B4901600C
:1048C0000C49416000214FF480428160C0E903122D
:1048D00041618161C1610162FDF738FA002803D0AE
:1048E000BDE81040FCF750B810BD00000058004073
:1048F0002CFF0020A0860100104810B50E49016071
:104900004FF482714160002102228160C0E90312EC
:10491000012242615202C0E90621016241628162C4
:104920000A21C162FDF7FEFF002803D0BDE8104058
:10493000FCF72AB810BD00000030014080FF0020C5
:10494000104810B50E4901604FF48271416000219A
:1049500002228160C0E90312012242615202C0E9D1
:1049600006210162416281620A21C162FDF7DAFF1C
:10497000002803D0BDE81040FCF706B810BD0000C9
:1049800000380040D8FF00200F4810B50D490160E5
:104990004FF48271416000218160C1604FF4007268
:1049A0000161C0E90512C1610162416281620A21AF
:1049B000C162FDF7B7FF002803D0BDE81040FBF748
:1049C000E3BF10BD003C00403000012010B596B0A0
:1049D00000240F9410941194129413941C2168468F
:1049E0001494FBF734FC202107A8FBF730FC39486E
:1049F0003749C0E900142021816041F2BF21C0E99C
:104A000003148021C0E90541FEF742FA08B1FBF723
:104A1000BBFF4FF480500F900FA92E48FEF760FBAC
:104A200008B1FBF7B1FF2B48FEF779FD08B1FBF7A2
:104A3000ABFF7020CDE9130413A92648FEF77CF9DB
:104A400008B1FBF7A1FF6020CDE9000402940394B4
:104A50004FF400700494CDE90540002269461D48DA
:104A6000FEF7F7FC08B1FBF78FFF042269461948EF
:104A7000FEF7EFFC08B1FBF787FF082269461548EF
:104A8000FEF7E7FC08B1FBF77FFF41F25C200694DC
:104A900001900C2269460F48FEF7DBFC08B1FBF7DA
:104AA00073FF0794A8200894CDE909404FF4005003
:104AB000CDE90B4040000E9007A90648FEF711F91A
:104AC00008B1FBF761FF0348FEF712FC16B010BDFA
:104AD000000001404801012010B586B000241648AE
:104AE000009401940294039404944FF0804105943F
:104AF00001605321C0E90114611EC0E903148461FF
:104B0000FEF7C6F908B1FBF73FFF4FF48050009065
:104B100069460948FEF7E4FA08B1FBF735FF04944B
:104B200004A905480594FEF707F9002801D0FBF712
:104B30002BFF06B010BD00009001012010B58EB013
:104B400000240794089409940A940B941C21684645
:104B50000C94FBF77CFB22482049C0E900144FF677
:104B6000FF71C0E9024104618461FEF791F908B167
:104B7000FBF70AFF4FF48050079007A91848FEF78B
:104B8000AFFA08B1FBF700FF1548FEF7C8FC08B103
:104B9000FBF7FAFE0B940BA911480C94FEF7CCF826
:104BA00008B1FBF7F1FE6020CDE900040294042275
:104BB00069460B480494FEF74CFC08B1FBF7E4FE91
:104BC0000C2269460648FEF744FC08B1FBF7DCFE00
:104BD0000348FEF78DFB0EB010BD0000000400403E
:104BE000D801012010B58EB00024079408940994D0
:104BF0000A940B941C2168460C94FBF728FB1F4871
:104C00001D490160A721C0E9011441F28731C0E9C3
:104C1000031480218161FEF73BF908B1FBF7B4FE74
:104C20004FF48050079007A91448FEF759FA08B1CD
:104C3000FBF7AAFE1148FEF772FC08B1FBF7A4FED1
:104C40000B940BA90D480C94FEF776F808B1FBF70E
:104C50009BFE6020CDE900040294002269460748CB
:104C60000494FEF7F6FB08B1FBF78EFE0348FEF74F
:104C70003FFB0EB010BD00000008004020020120E4
:104C800010B596B000240F941094119412941394BC
:104C90001C2168461494FBF7DAFA202107A8FBF7D9
:104CA000D6FA39483749C0E900142021816041F221
:104CB000BF21C0E903148021C0E90541FEF7E8F8EF
:104CC00008B1FBF761FE4FF480500F900FA92E48FA
:104CD000FEF706FA08B1FBF757FE2B48FEF71FFC5C
:104CE00008B1FBF751FE7020CDE9130413A9264843
:104CF000FEF722F808B1FBF747FE6020CDE900047B
:104D0000029403944FF400700494CDE9054000220E
:104D100069461D48FEF79DFB08B1FBF735FE0422EE
:104D200069461948FEF795FB08B1FBF72DFE0822EE
:104D300069461548FEF78DFB08B1FBF725FE41F2E9
:104D40005C20069401900C2269460F48FEF781FB17
:104D500008B1FBF719FE0794A8200894CDE9094093
:104D60004FF480400E900B9407A90C940648FDF771
:104D7000B8FF08B1FBF708FE0348FEF7B9FA16B012
:104D800010BD000000040140680201200C4810B56D
:104D90000A4901604FF4E1314160002181600C2239
:104DA000C160C0E904128161C161FEF7E1FD002824
:104DB00003D0BDE81040FBF7E7BD10BD0010014077
:104DC000100301200D4810B50B4901604FF4E1318B
:104DD0004160002181600C22C160C0E904124FF4DF
:104DE0008072C0E90621FEF7C3FD002803D0BDE8AC
:104DF0001040FBF7C9BD10BD00440040580301201E
:104E00000C4810B54FF0A04101600421017102224D
:104E1000C2710021817142728172C172017381730A
:104E2000C173FDF747FA002803D0BDE81040FBF737
:104E3000ABBD10BDA0030120FEE780E80E00704767
:104E400010B504461421FBF702FA00209FED020A78
:104E5000207584ED060A10BD00000000017DD0ED34
:104E6000060A00EB8101052291ED001A70EEC10ADD
:104E7000B1EE041AC0ED060A81ED000AD0ED060A73
:104E800070EE800AC0ED060A80EE810A017D491CA1
:104E9000B1FBF2F302FB131101757047FEE700004E
:104EA000174970EE600A90ED030A91ED001A00EECA
:104EB000810A80ED030AD0ED041A30EEE12AC2EE39
:104EC000011A90ED011A21EE000A90ED001A01EE90
:104ED000200A90ED021A01EE210A90ED061AB4EEB6
:104EE000C01AF1EE10FA06D390ED051AB4EEC01A0E
:104EF000F1EE10FA01DDB0EE410AC0ED040A704790
:104F000034FD002080EC030A9FED050A80ED030AC2
:104F100080ED040AC0ED051A80ED062A70470000F6
:104F20000000000070B50D462DED048BF0EE419AA7
:104F3000B0EE409A0446F0EE608AB0EE690A00F0E6
:104F4000ADFFB0EE408AB0EE690A00F0A7FE69EE50
:104F5000000A28EE800A48EE880A09EE480AC4EDE5
:104F6000000A85ED000ABDEC048B70BD70477FB56B
:104F70000546009100246946FCF720F82846FCF716
:104F800083FA611E2846FCF729FA18B92846FCF76F
:104F9000BDF884B204B0204670BD00000A46014648
:104FA000FF230148FDF7D4BD80FF0020F8B515466A
:104FB0000E460B46009204460122022100F02CF816
:104FC000A0B9134813490068B0FBF1F04FF47A71AF
:104FD000484300906068B0F5827F0DD133460022CF
:104FE00080212046009500F017F870B1606D40F008
:104FF000200060650320F8BD009830B1401E00908D
:1050000020688068C0430006F6D50020F8BD000087
:1050100048FD002000366E012DE9F8431E469146FA
:1050200088460446089DFCF78BFE401B351AFCF7AA
:1050300087FE074625480068C0F3CB30684338E058
:10504000701C37D0FCF77CFEC01BA84203D215B100
:10505000009860B32CE02068416821F0E0014160D5
:105060006068B0F5827F0BD1A068B0F5004F02D028
:10507000B0F5806F04D12068016821F04001016023
:10508000A06AB0F5005F09D12068016821F40051E1
:1050900001602068016841F400510160012084F83A
:1050A0005100002084F850000320BDE8F88300255B
:1050B000401E00902068816838EA010004D000207A
:1050C0004845BDD10020F0E70120F9E748FD002068
:1050D0007047000010B52DED048BB0EE408AF0EE65
:1050E000618AB5EEC08AB0EE419AF0EE609AF1EEB8
:1050F00010FA1AD1B0EE681AF0EE490AB0EE690A59
:10510000FBF742FA1A48BCEEC00A026810EE101A09
:105110005163BCEEE00A026810EE101A9163BCEE17
:10512000C10A006810EE101AC16318EE100AB0F13F
:105130007E5F1AD1B0EE681AF0EE490AB0EE690A45
:10514000FBF722FA0B48BCEEC00A026810EE101AF8
:105150005163BCEEE00A026810EE101A9163BCEED7
:10516000C10A006810EE101AC163BDEC048B10BDBB
:105170004801012068020120FDF702B830B593B064
:1051800030216846FBF763F814210CA8FBF75FF8A1
:105190001E480025016841F080510160006800F060
:1051A000805011901A48016841F480410160006804
:1051B000022400F48040119001200090000401902E
:1051C0008001CDE90640192008904FF4A870CDE980
:1051D000090407200B906846FDF7F8F908B172B68C
:1051E000FEE70CA90F2081E831004FF4A0500F908A
:1051F0004FF48050109005210CA8FDF7FBF8002813
:1052000001D072B6FEE713B030BD00004038024056
:10521000007000400248016841F47001016070476D
:1052200088ED00E00148FDF7CABF000048010120F9
:105230000148FDF7C4BF0000200201200148FDF72E
:10524000BEBF000068020120F0B50268294D2A4E59
:105250002A4FDFF8ACC02B4B4FF0804EA84209D04C
:10526000704507D0B04205D0B84203D0604501D0A8
:10527000984203D122F070044A682243A8421BD00E
:10528000704519D0B04217D0B84215D0604513D040
:10529000984211D01C4CA0420ED01C4CA0420BD006
:1052A0001B4CA04208D01B4CA04205D01A4CA04277
:1052B00002D01A4CA04203D122F44074CA6822439F
:1052C0004C6922F08002224302608A68C2620A6846
:1052D0008262A84201D0984201D10969016301218B
:1052E00041610169C90703D0016921F00101016130
:1052F000F0BD000000000140000400400008004034
:10530000000C004000040140004001400044014006
:105310000048014000180040001C004000200040F0
:1053200010B501F01F010123046A8B409C43046205
:10533000036A8A401343036210BD10B501F00F01E8
:105340000423046A8B409C430462036A8A4013432B
:10535000036210BD10B5846842EA032224F47F443E
:105360000A432243826010BD826822F070020A4321
:1053700042F0070181607047F0B5026A036A23F0CA
:105380000103036243688469114E24F073050C68BD
:10539000104F2C4322F002058A682A43B04201D004
:1053A000B84205D122F00805CA682A4322F0040257
:1053B000B04201D0B84205D14D6923F440731D437A
:1053C0008B692B4343608461496841630262F0BD8D
:1053D0000000014000040140F0B5026A036A23F0B6
:1053E00010030362436884690D6824F4E64444EAC8
:1053F00005248D6822F0200242EA05120F4D104E5E
:10540000A84201D0B04206D1CF6822F0800242EA21
:10541000071222F04002A84201D0B04207D14D69E4
:1054200023F4406343EA85038D6943EA85034360BF
:105430008461496881630262F0BD000000000140A0
:1054400000040140F0B5026A036A23F4807303622A
:105450004368C46922F4007224F073050C68124E8C
:105460002C438D6842EA05220E4DA84201D0B0427D
:1054700006D1CF6822F4006242EA072222F4806259
:10548000A84201D0B04207D14D6923F4405343EA0A
:1054900005138D6943EA05134360C4614968C1631C
:1054A0000262F0BD000001400004014030B5036A13
:1054B000026A22F4805202624268C4690D6824F4D0
:1054C000E64444EA05248D6823F4005343EA053397
:1054D000084DA84202D0084DA84204D14D6922F4DB
:1054E000804242EA85124260C461496801640362F5
:1054F00030BD0000000001400004014010B53248FA
:10550000FDF772FD304C2068C16841F00101C160B7
:1055100000212046FEF732F804212046FEF72EF83F
:1055200008212046FEF72AF80C212046FEF726F82F
:1055300000212046FDF748FC04212046FDF744FCED
:1055400008212046FDF740FC2068416C41F40041F1
:10555000416404F59070FDF747FD04F590742068F0
:10556000C16841F00101C16000212046FEF706F844
:1055700004212046FEF702F808212046FDF7FEFF31
:105580000C212046FDF7FAFF00212046FDF71CFC08
:1055900004212046FDF718FC08212046FDF714FCE5
:1055A0002068416C41F400414164A4F1D800FDF74A
:1055B0001BFDA4F14800FDF753FDA4F14800BDE830
:1055C00010400021FDF7DABF4801012010B5046A40
:1055D000036A23F001030362836923F0F00343EAC3
:1055E000021324F00A020A438361026210BD10B55F
:1055F000036A046A24F010040462846923F0A0039F
:1056000024F4704444EA023243EA011182610162E7
:1056100010BD10B5806B0021C185C184FEF76EF806
:1056200010BD01680C3151E8002F22F4907241E85E
:105630000023002BF5D10168143151E8002F22F02E
:10564000010241E80023002BF5D1016B012909D1AA
:1056500001680C3151E8002F22F0100241E80023CC
:10566000002BF5D1202180F8421000210163704702
:1056700008B590F84210222901D0022008BD8168A7
:105680004FF48053994201D1026922B1826A994252
:105690001BD049B10AE00268816A5268C2F308026D
:1056A0000A80816A891C08E0016971B10168496852
:1056B00001F07F011170816A491C8162C18D491E10
:1056C0000904090CC18503D01BE001684968F1E7B2
:1056D0000168CA6822F02002CA600168CA6822F420
:1056E0008072CA6001684A6922F001024A61202181
:1056F00080F8421000214163026B012A03D0FEF7BB
:105700001FFA002008BD016301680C3151E8002F29
:1057100022F0100241E80023002BF5D101680A684D
:10572000D20602D50A6849680091818DFDF7E5FF30
:10573000E7E7000070B5044600680169E26821F4FB
:10574000405111430161A1682069E2690143606928
:10575000104301432068C26849F20C639A430A432C
:10576000C26020684169A26921F44071114341611E
:1057700031492068884202D03049884202D1FCF782
:10578000E3FE01E0FCF7D0FEE26900231921642565
:105790003226B2F5004F626828D0A0FB0101930FBA
:1057A0009200FAF70DFD0146B0FBF5F06FF018021C
:1057B000504301EB800006EB0010B0FBF5F000F069
:1057C000F002B1FBF5F002EB0012B1FBF5F06FF067
:1057D0001803584301EB800006EB0010B0FBF5F016
:1057E00000F00F0021681044886070BDA0FB01012B
:1057F00092185B41FAF7E4FC0146B0FBF5F00201B8
:10580000B1FBF5F06FF01803584301EB800006EB95
:10581000C000B0FBF5F000F0F80002EB4002B1FB75
:10582000F5F0584301EB800006EBC000B0FBF5F04B
:1058300000F00700D6E7000000100140001401400E
:105840002DE9F8431F4690460D460446089E23E086
:10585000701C21D0FCF774FAC01BB0421AD8CEB12C
:105860002068C168490717D5802D15D0402D13D069
:105870000168C94309070FD40168002540680090FA
:105880002046FFF7CEFE0820606484F840500120D7
:10589000BDE8F8830320FBE72068006835EA0000D4
:1058A00004D000204045D3D00020F1E70120F9E7E3
:1058B0002DE9FC411A48FDF723FF194C20680068C8
:1058C000184DC04380064FF47A774FF0000614D489
:1058D0003B46012269462046FEF7DAF868786428DC
:1058E00000D36E70104A68789DF800101154401C67
:1058F000687021686FF02000086020680068C0436D
:10590000C0060AD43B466A7807490548FEF719F9EC
:105910006E702068016840680190BDE8FC8100005D
:105920001003012038FD00208408012070B50D46C9
:105930000446C2F3072004991E4601281BD0E068E4
:1059400040F04000E060204600F032F8C6F3072146
:105950000029A16B26D021F48031A163C5F3074152
:10596000012907D1A16841F00601A160A16841F0B9
:105970002001A16070BDA06B20F48030A063E068BE
:105980000A4A1040E060E06820F44010E060C8B2CD
:10599000012803D1E06840F48010E060204600F068
:1059A00007F8DBE741F48031D7E70000BFFFBDFF18
:1059B00008B500234FF0706200930099491C0091D4
:1059C00091420CD801690029F7DA0093016941F08E
:1059D000010101610099491C0091914201D9032004
:1059E00008BD0169C907F5D1002008BDD0F8001E27
:1059F00021F00301C0F8001ED0F8041841F00201A4
:105A0000C0F80418002070472DE9F04F0026044626
:105A10000F4692463046354604EB8001C1F80451EA
:105A2000401C0F28F8D3C3F307405FEA000B204661
:105A300013D0806B20F40011A163A06B40F400210F
:105A4000A163C4F8005ECAF30720012817D0D4F878
:105A50000018204641F0030118E0D0F8040840F097
:105A60000201C4F80418A06B40F40011A163A06BFC
:105A700020F40021A163A06B20F48021E0E7380E20
:105A8000D4F80018204601D041F00101C0F80018F8
:105A9000102100F093F800B10126204600F072F8C2
:105AA00000B10126C4F81058C4F81458C4F81C58A2
:105AB00000204FF0006C4FF090434FF67F39FAB260
:105AC00014E004EB4011D1F80089B8F1000F06DAB8
:105AD00010B1C1F8003904E0C4F800C901E0C1F810
