:020000040800F2
:10000000A01800209D010008BF690008934E000859
:1000100095680008870E0008057C000800000000B5
:10002000000000000000000000000000B96D0008A2
:10003000A912000800000000B96B0008A16F0008B9
:10004000B7010008B7010008B7010008B7010008B0
:10005000B7010008B7010008B7010008B7010008A0
:10006000B7010008B7010008B7010008BD1100087A
:10007000B7010008B7010008B7010008D511000852
:10008000B7010008B7010008350C0008B7010008E7
:10009000B7010008B7010008B7010008B701000860
:1000A0004D700008B7010008B7010008B70100084B
:1000B000B7010008B7010008A1700008B7010008E7
:1000C000B7010008B7010008B7010008B701000830
:1000D000B701000841780008B7010008B70100081F
:1000E000B7010008B7010008B7010008B97000089F
:1000F000B7010008B7010008B7010008B701000800
:10010000B7010008B7010008B7010008B7010008EF
:10011000B7010008B7010008AD700008B70100087A
:10012000E1110008B7010008ED110008B70100084F
:10013000B7010008B7010008B7010008B7010008BF
:10014000B7010008B7010008B7010008B7010008AF
:10015000B7010008B7010008F9110008B70100084D
:10016000B7010008B7010008B7010008B70100088F
:10017000B7010008B7010008B7010008000000003F
:10018000B7010008B7010008DFF80CD000F0B4FA9E
:100190000048004781830008A018002006488047D7
:1001A00006480047FEE7FEE7FEE7FEE7FEE7FEE75C
:1001B000FEE7FEE7FEE7FEE73D7000088901000864
:1001C0002DE9F05F0546002092469B46884606468C
:1001D000814640241BE0284641464746224600F01F
:1001E000AFF953465A46C01A914110D311461846EA
:1001F000224600F016F82D1A67EB01084F462246FA
:100200000120002100F00DF817EB00094E41201EDF
:10021000A4F10104DFDC484631462A464346BDE8E6
:10022000F09F202A04DB203A00FA02F100207047F8
:100230009140C2F1200320FA03F319439040704724
:10024000D2B201E000F8012B491EFBD27047002218
:10025000F6E710B513460A4604461946FFF7F0FFC5
:10026000204610BD421C10F8011B0029FBD1801A4A
:100270007047000070B50F4D00B92868002412E0E7
:100280000A4602E09E4203D0521C1378002BF9D19B
:10029000DAB2224305D02BB124B1002100F8011BB2
:1002A00004E00446401C0678002EE9D12860204670
:1002B00070BD0000E40000202DE9FE4F81EA030438
:1002C00004F0004421F0004100944FF0000B23F0B3
:1002D000004350EA01045ED052EA03045BD0C3F34A
:1002E0000A54C1F30A552C44A4F2F3340194A0FB40
:1002F0000254C1F3130141F48011C3F3130343F417
:10030000801301FB024400FB034E840A970A44EA6F
:10031000815447EA8357A4FB076802958D0A05FBC1
:1003200007854FEA932C04FB0C542705029D4FEAE6
:10033000065847EA1637B5EB08056EEB070C870E33
:10034000920E47EA811742EA8312A7FB0201B6EB3D
:100350000B0164EB00042B0D43EA0C335E1844EBF5
:100360001C50DA465146E7FB0201C5F313044FEA7D
:100370000B3343EA14534FEA0432019C43EA060369
:10038000A4F10C040294009CCDE900B400F064F9DF
:1003900003B0BDE8F08F00200146F9E72DE9F04DEC
:1003A00081EA030404F0004B21F0004514464FF0AD
:1003B000000A23F0004150EA050220D054EA01026D
:1003C0001DD0C5F30A570246C5F31303C1F313004A
:1003D000C1F30A5640F4801543F48013A7EB0608D6
:1003E000101BD64608F2FD3873EB050002D308F166
:1003F000010801E092185B41B8F1000F03DA002018
:100400000146BDE8F08D00204FF480110646844679
:100410000EE0171B73EB050705D3121B63EB0503F7
:1004200006434CEA010C49084FEA300092185B4140
:1004300050EA0107EDD152EA030012D082EA04002B
:1004400083EA0501084305D0101BAB4106D2012207
:10045000002306E000224FF0004302E06FF00102AB
:1004600053101AEB06004CEB085110EB0A0041EB5D
:100470000B01BDE8F04D00F0E0B8000030B5041EFF
:1004800071F1000404DB4FF00044404264EB0101D1
:10049000141E73F1000405DB1C464FF0004352426A
:1004A00063EB04038B4208BF824230BD30B5041EAB
:1004B00071F1000404DB4FF00044404264EB0101A1
:1004C000141E73F1000405DB1C464FF0004352423A
:1004D00063EB0403994208BF904230BD01F0004332
:1004E00030B421F0004150EA010206D00A0DA2F515
:1004F0006072C1F31301002A02DC30BC0020704797
:10050000440F44EAC104C100E01830BC00EBC25003
:1005100000F033B830B50B460146002020220124FC
:1005200009E021FA02F59D4205D303FA02F5491BC1
:1005300004FA02F52844151EA2F10102F1DC30BDD7
:10054000202A04DB203A21FA02F00021704721FA28
:1005500002F3D040C2F1200291400843194670478F
:100560007CB50023CDE900330546684600F0F1F87C
:100570006946284607F05CFC7CBD0029A8BF70478F
:10058000401C490008BF20F00100704710B4B0FAC9
:1005900080FC00FA0CF050EA010404BF10BC704764
:1005A00049B1CCF1200421FA04F411FA0CF118BF7E
:1005B000012121430843A3EB0C01CB1D4FEA00614D
:1005C0004FEA102042BF002010BC704700EBC35020
:1005D00010440029A4BF10BC7047401C490008BF4C
:1005E00020F0010010BC7047F0B400F0004221F090
:1005F000004120F00040CE0DC30DC1F3160141F4BF
:100600000001C0F316004C42154640F40000761E6F
:1006100009E010EB440002D582F0004240428842DB
:10062000F7D840005B1EB342F9DA18B1F0BC0021E4
:10063000FFF7ACBF2846F0BC704710B5141E73F12D
:10064000000408DA401C41F1000192185B411A4392
:1006500001D120F0010010BD2DE9F04D92469B46DE
:1006600011B1B1FA81F202E0B0FA80F22032904684
:10067000FFF7D7FD04460F4640EA0A0041EA0B01A6
:1006800053465A46084313D0114653EA010019D085
:10069000C8F140025046FFF753FF05460E4650464C
:1006A00059464246FFF7BDFD084305D0012004E04E
:1006B00020463946BDE8F08D0020054346EAE07645
:1006C0002C4337430A986305E40AA0EB0800002294
:1006D000FD0A44EA47540A3002D500200146E9E702
:1006E000010510196941DDE9084500196941BDE8B6
:1006F000F04DA2E700207047064C074D06E0E06889
:1007000040F0010394E8070098471034AC42F6D358
:10071000FFF73EFD9C5D0308BC5D03080FB400239A
:1007200000B589B00CA900910B996FF00042CB6025
:100730001E4B06931E4B07930423CDE901321D4A3D
:10074000089202466B46002000F0D0F809B05DF830
:1007500014FB70B586B006464FF0FF300091CDE92E
:100760000101002015460C4604903246694604A853
:10077000FFF7D4FF02460498211825B108B10846B6
:1007800000E020462860049800280DD0002A02DDF1
:100790000098884208D0081B0094CDE90104324635
:1007A000694604A8FFF7BAFF06B070BD250B000824
:1007B000430B0008B9070008C0B24FF4F05100F035
:1007C000D1B900002DE9FF4F087883B09946FF2882
:1007D00005D0491C2D2804D00024002008E000206A
:1007E0000BE00124F9E700EB800003EB4000491C1B
:1007F0000B78FF2BF7D104B1404200230293147809
:1008000019461D462D2C01D02B2C04D1521C2D2C09
:1008100013D000240294AA461478FF2C0FD00A2586
:10082000A3FB057801FB05814FF0000C03FB0C11C5
:10083000521CE3194AEB0101EEE70124EAE7814487
:1008400053EA010002D019F5C87F06DA03980021A7
:10085000C0E9001107B0BDE8F08F0025AE4E2F466D
:10086000DFF8B882184600F091F9CDE90001B9F13E
:10087000000002DAC9F1000400E004460023A74AA0
:100880001AEB030B42EB045A12E0E00707D02A46AA
:10089000334638464146FFF70FFD074688462A464D
:1008A000334610461946FFF707FD05460E4664100D
:1008B000002CEAD1DDE90001B9F1000F5A46534698
:1008C00006DAFFF76BFD3A464346FFF767FD05E0A2
:1008D000FFF7F2FC3A464346FFF7EEFC029A0AB1F4
:1008E00081F00041039AC2E90001B3E72DE9FF4F0F
:1008F0001F468DB0D7E901464FF0FF382E20454600
:100900004FF000090B90B9696D1C0E988847396A41
:10091000824688470028F6D1BAF1FF3F0AD024F476
:10092000D064002E11DDBAF12B0F08D0BAF12D0FD3
:100930000BD102E0404611B08DE744F48064B96900
:100940006D1C0E9888478246761E6946600501D563
:100950002D2000E02B208DF8000001F1010B0DF19E
:10096000200809E0B9696D1C0E98884782460F98E7
:1009700044F40074761E0560002E02DDBAF1300FDB
:10098000F0D00B998A453ED144F0800406E00F99DF
:10099000681CA9F1010944F400740860B9696D1C70
:1009A000761E0E98884782463028F0D02BE00B99AF
:1009B0008A4505D1200603D444F08004761E18E051
:1009C000504607F053FA08B30DF11301761E44F4B4
:1009D00000748B4508D2AAF130000BF8010B2006F9
:1009E00007D5A9F1010003E0200602D409F10100B6
:1009F0008146A00502D50F99681C0860B9696D1C75
:100A00000E9888478246002ED1DC53E0002E51DD3F
:100A1000BAF1650F02D0BAF1450F4BD1A00549D507
:100A2000B9696D1C24F44074761E0E98884782467E
:100A3000002E0CDD2B2804D0BAF12D0F07D144F481
:100A40008074B9696D1C0E9888478246761EE00551
:100A500001D52D2100E02B2108F8011BCDF82C80B9
:100A600021E00DF12901761E44F4007488450CD272
:100A7000AAF1300010F0FF0088F8000002D10B99B5
:100A8000884509D908F1010806E0E00501D52448A8
:100A900001E042F20F708146B9696D1C0E988847DB
:100AA00082460F980560002E04DD504607F0DEF9FF
:100AB0000028D6D1F9690E988847FF208BF80000EE
:100AC00088F800000020069007904B466A4608A967
:100AD00006A8FFF777FEA00502D46FF001002AE711
:100AE00014F0240F0AD0E00714D1DDE906123868AB
:100AF000031D3B600068C0E900120BE0DDE9060160
:100B0000FFF7ECFC0146E00704D13868021D3A60AB
:100B10000068016028460EE7000014400000F03F26
:100B2000F1D8FFFF426842B1016811F8013B23B1DF
:100B3000521EC0E90012184670470121C160881E8C
:100B4000704742685AB1C368016843B983688B42F1
:100B500005D0491E521CC0E90012002070474FF01A
:100B6000FF3070477F2801D9002208E0064A02EBD7
:100B70005002C007127800D1120902F00F020120C2
:100B800090400840704700005C5D03080EB540F2DD
:100B9000334202920022CDE900221346FFF75CFDAA
:100BA00003B000BD10B50146806B026C12F0500F0F
:100BB00005D0026CD20626D501F07EF810BD016C7E
:100BC00041F40071016401688A6812F0405F17D136
:100BD000027EAAB9CA6A12F4700F02D08A6852055E
:100BE0000ED44A6822F020024A60016C21F4807120
:100BF0000164016CC90403D4016C41F0010101647A
:100C000001F058F810BD806BC26CBDE8104008467A
:100C1000104710B5806B40210164416C41F0040124
:100C2000416401F049F810BD10B5806B01F043F844
:100C300010BD000010B5054801F042F8044801F06D
:100C40003FF8BDE81040034801F03AB84C010020DD
:100C500094010020DC010020464910B54A6822F4C6
:100C600040324A604A6843681A434A6001684A68E9
:100C700022F480724A6001684A68036942EA0322EA
:100C80004A6001684A6822F040724A6001684A6816
:100C900083681A434A6001688A6822F400628A60A5
:100CA00001688A68C3681A438A60816A6FF070625B
:100CB000D14201688A6822F070628A6001688A689D
:100CC0000CD0836A1A438A6001688A6822F0405215
:100CD0008A6001688A68C36A1A4301E022F04052C0
:100CE0008A6001688A6822F002028A6001688A6864
:100CF000037E42EA43028A6090F8201000290168CE
:100D00004A680FD042F400624A6001684A6822F4DF
:100D100060424A6001684A68174C436A04EB4333F7
:100D20001A4301E022F400624A600168CA6A22F4B0
:100D30007002CA620168CA6A838B104C04EB0353C9
:100D40001A43CA6201688A6822F400728A600168E4
:100D50008A6890F8303042EA43228A6001688A68E3
:100D600022F480628A6001688A68406942EA8020D1
:100D7000886010BD0023014000E0FFFF0000F0FF8D
:100D800010B50F4C9FED0D0A022284ED010A84ED8F
:100D9000000A211F0B4801F0C7F9201F018800EE4F
:100DA000101AB8EE400A84ED000A408800EE100ADE
:100DB000B8EE400A84ED010A10BD000000000000FA
:100DC0003C000020DC0100200349002008600120D5
:100DD0003C31086070470000C411002038B504465B
:100DE0000D460020009002236A460C21284600F0A0
:100DF0003DF800B10120207602236A460C212846E6
:100E000000F034F8012824D09DF800109DF801006E
:100E100001F00F0140EA0120410000EE101ADFED61
:100E2000100AA080B8EE400A20EE200ADFED0D0A7D
:100E300080EE201A00EE100AB8EE400A84ED041A83
:100E40009FED091A20EE010A80EE201A84ED021AA5
:100E500038BD284601F0F2FE284601F009FF38BDF2
:100E6000DB0F494000F07F450000B4433EB56424E9
:100E70008DE81C000A4601236C2101F0BDFF00280B
:100E800000D001203EBDFEE710B52DED0A8BB0EE7F
:100E900041CAF0EE60BAB0EE40BAF7EE00AADFED5C
:100EA000719A0024DFED708AB0EE4C0AB0EE689AB9
:100EB000B0EE688A07F0D0F9B0EE40AAB0EE4C0A66
:100EC00007F088F9F0EE401A2BEE8A0A2BEEA11AF1
:100ED0000BEE210A0BEE4A1AB5EEC00AF1EE10FA3B
:100EE00000DD0124DFED613AF0EE400AB6EE002AA3
:100EF00051EE230A60EE820AF5EEC00AF1EE10FA16
:100F000000DDA41C9FED5A3AF0EE400A51EE030AB0
:100F100060EE820AF5EEC00AF1EE10FA00DD241D43
:100F2000BFEE084ADFED530AF7EE082ADFED524A1A
:100F3000062C5DD2DFE804F05C030C15205361EE53
:100F4000041A21EE221A40EE201A61EEA91A19E0C5
:100F500021EE221A00EE201A20EE030A61EE291A71
:100F600007E060EE240A20EE230A41EE440A60EE18
:100F7000A91A20EE291A09E060EE031A21EE041ADC
:100F800061EEA91A00EE201A21EE291A31EE810A2B
:100F900010EE100AB0F17E5F07DDC1EE800AF0EEC0
:100FA000601AC1EE000AB0EE601AF5EE000A31EEEA
:100FB000810A072C3AEEC00A60EE200AB0EE600A01
:100FC00001EE820AF0EE401A41EE021AB0EE611A0A
:100FD0003CD2DFE804F03B181D22292E350060EEDC
:100FE000230A20EE240A60EEA91A01EE620AC0E785
:100FF00020EE240AF0EE400A01EE440A41EE620AB5
:1010000060EEA91AB5E7B0EE409AF0EE608A08E00B
:10101000B0EE609AF0EE418A0FE0B0EE609AF0EE2A
:10102000408AB0EE418A11E0B0EE419AF0EE408A7B
:101030000AE0B0EE419AF0EE608AB0EE408A05E038
:10104000B0EE409AF0EE418AB0EE608A9FED0B1A46
:1010500029EE010A68EE810A28EE011ABDEC0A8B1E
:1010600010BD0000ABAAAA3D00000000D7B3DD3FD1
:10107000D7B3DDBFD7B35D3FD7B35DBF0000AF458A
:1010800070B5364C9FED340A354884ED000A84ED86
:10109000010A84ED020A84ED030A00F0C7FF31481B
:1010A00000F0C4FF002501212D4800F0D1FC00EE26
:1010B000100AD4ED000A0221B8EE400A284830EEAA
:1010C000200A84ED000A00F0C3FC00EE100AD4ED03
:1010D000010A0121B8EE400A224830EE200A84EDD0
:1010E000010A00F0B5FC00EE100AD4ED020A02215C
:1010F000B8EE400A1B4830EE200A84ED020A00F0E8
:10110000A7FC00EE100AD4ED030A0120B8EE400A55
:1011100030EE200A84ED030A01F0C6FB6D1C642D3D
:10112000C1DBD4ED000A9FED100A80EE801A84ED39
:10113000001AD4ED010A80EE801A84ED011AD4ED74
:10114000020A80EE801A84ED021AD4ED030A80EEC2
:10115000801A84ED031A70BD00000000C400002056
:101160004C010020940100200000C842F0EE000A6B
:1011700080ED000A01EE200ADFED030A20EE200ACE
:1011800081ED000A704700003ACD13BF9FED0A0AB7
:1011900080ED000A80ED010A80ED020A80ED030A6D
:1011A00080ED040A80ED050A80ED060A80ED070A4D
:1011B00080ED080A704700000000000010B50348E9
:1011C00001F000FA02490120087010BD6C060020F1
:1011D00044000020014801F0F5B900005C04002043
:1011E000014801F0EFB9000024020020014801F09D
:1011F000E9B900005C070020014801F0E3B90000F4
:10120000BC07002001681823CAB2103AB2FBF3F2FF
:10121000054B6FF30901032A9B5CC36500D9091DC7
:101220008165084670470000BC85000810B501467E
:1012300000208B698A6A4FF0C07453B1B3F5005F28
:1012400015D072B1012A0CD0022A0AD0032A09D182
:1012500004E01AB1012A06D0022A03D1C96AC901E1
:1012600000D5012010BDC96AA142FAD010BD002AE4
:10127000F7D0012AF2D0022AF3D0032AF3D010BD0E
:1012800030B50468256825F480252560046863600E
:101290008368402B036803D099600068C26030BD4A
:1012A0009A600068C16030BD704772B6FEE700000A
:1012B00010B507232DED068B01220021704805F0A3
:1012C000EAFA07234FF0FF3201216E4805F0E3FAF6
:1012D0006D48FFF75BFF6D48FFF758FFB0EE083A27
:1012E000F8EE082AB1EE042AF9EE041A9FED688A96
:1012F000F0EE000AB0EE481ADFED668A6648B0EEFE
:10130000680A05F0B3FB6448B0EE083AF8EE082A24
:10131000B1EE042AF9EE041AB0EE481AF0EE000A13
:10132000B0EE680A2C3005F0A1FBB0EE083AF8EEFA
:10133000082AB7EE002AFFEE001AB0EE481ADFEDD9
:10134000578A5548B1EE040AF0EE680A583005F0A5
:101350008DFB5148B0EE083AF8EE082AB7EE002AA5
:10136000FFEE001AB0EE481AF0EE680AB1EE040A79
:10137000843005F07BFBB0EE003AF8EE002ADFED9A
:10138000488AB0EE682A9FED479AF0EE491ADFEDE1
:10139000469AB0EE691A9FED45AA3F48B7EE080A93
:1013A000F0EE4A0AB03005F061FB3B48B0EE003A7F
:1013B000F8EE002AB0EE682AF0EE491AB0EE691A8B
:1013C000F0EE4A0AB7EE080ADC3005F04FFB0122C6
:1013D0002021374801F026FCFFF752FEF0EE481AB4
:1013E000B1EE001AF0EE480AB0EE480A05F0E6FC4D
:1013F000F0EE481AB9EE001AF0EE480AB7EE000A0D
:1014000005F0DCFC4FF47A7001F04EFA29492A48C5
:10141000FFF7E4FC29492A48FFF7E0FC2648284961
:10142000F0EE481A8088B0EE481A00EE100A2548FF
:10143000F0EE480AB8EE400A80ED000A898800EE16
:10144000101AB8EE400A80ED010AB0EE480A05F025
:10145000B5FCF0EE481AB0EE481AF0EE480AB7EEC6
:10146000000A05F0ABFC0321174805F071FABDEC4A
:10147000068B03211448BDE810400C3005F068BA13
:101480003C12002048120020541200207812002044
:1014900000000000CDCC4C3FA41000209A99193FC9
:1014A00000009643000096C3CDCC4C3D9A99993EDE
:1014B00000100240AC020020C411002000030020F4
:1014C00000120020AC000020AC11002030B5024614
:1014D00006F050FF344C0346206806F0FDFE9FEDF9
:1014E000331A216851B1916A41B1A0F1320142F23F
:1014F000DF65A9421CD392ED070A30BD23609362D9
:1015000092ED040A82ED090AB2F90C0000EE900A8D
:101510004000F8EEE00AC2ED080A00EE900AF8EE8C
:10152000E00A00EE810A82ED0B0A9FED210A30BD30
:10153000B2F90C10D2ED040A490000EE101A1D4D4C
:10154000B8EEC00A40EE010A92ED0B0A9FED1A1A9E
:1015500030EEC00A10EE101AA94202DD30EE410A48
:1015600006E010EE101A154DA94201D930EE010A1D
:1015700001EE100ADFED121AB8EE411A21EE211A1F
:10158000C0EE011A9FED0F0A92ED071A21EE800AB4
:10159000DFED0D1A01EE210A82ED070AC2ED0B0AFA
:1015A0009362236030BD0000B4000020DB0F49408F
:1015B00000000000DB0F4940DB0FC940DB0F49C0D2
:1015C000BD378635CDCC4C3ECDCC4C3F30B50246F8
:1015D00006F0D0FE344C0346606806F07DFE9FEDB9
:1015E000331A616851B1916A41B1A0F1320142F2FE
:1015F000DF65A9421CD392ED070A30BD6360936298
:1016000092ED040A82ED090AB2F90C0000EE900A8C
:101610004000F8EEE00AC2ED080A00EE900AF8EE8B
:10162000E00A00EE810A82ED0B0A9FED210A30BD2F
:10163000B2F90C10D2ED040A490000EE101A1D4D4B
:10164000B8EEC00A40EE010A92ED0B0A9FED1A1A9D
:1016500030EEC00A10EE101AA94202DD30EE410A47
:1016600006E010EE101A154DA94201D930EE010A1C
:1016700001EE100ADFED121AB8EE411A21EE211A1E
:10168000C0EE011A9FED0F0A92ED071A21EE800AB3
:10169000DFED0D1A01EE210A82ED070AC2ED0B0AF9
:1016A0009362636030BD0000B4000020DB0F49404E
:1016B00000000000DB0F4940DB0FC940DB0F49C0D1
:1016C000BD378635CDCC4C3ECDCC4C3F70B590F877
:1016D0003C20694D012A19D0012280F83C200A687B
:1016E00007230468092A13D9E6680A3A02EB420282
:1016F00093409E43E6600A788B680A3A02EB420206
:1017000093400268D4682343D36010E0022070BD88
:10171000266902EB420293409E4326610A788B6859
:1017200002EB42029340026814692343136102688A
:10173000936B23F4401393630268936B0C8A4F4EB0
:1017400006EB0454234393630A790B7CD21AD21C10
:1017500002EB82021F2393400268946B9C439463C4
:101760000A790B7CD21AD21C02EB82030A8892B24D
:101770009A4003689C6B22439A638A69AA42026872
:10178000936823F470239360026893680CD08C698B
:10179000234393600268936823F4401393600268C4
:1017A0009368CC69234301E023F4401393604A7D9E
:1017B000002A0268536802D043F4806301E023F4F6
:1017C000806353600A7D002A0268536802D043F4A4
:1017D000805301E023F4805353604A68012A16D0F5
:1017E000022A1FD0032A026827D0136A6FF30B0363
:1017F00013620268136ACC6823431362214B0468A6
:101800001F4A9C4227D10C68122C20D023E002688A
:1018100053696FF30B03536102685369CC68234328
:101820005361EBE7026893696FF30B0393610268FE
:101830009369CC6823439361E0E7D3696FF30B03AB
:10184000D3610268D369CC682343D361D6E7546877
:1018500044F48004546004689C4208D1096810294B
:1018600001D0112903D1516841F4000151600021D8
:1018700080F83C10084670BD01000F000000F0FF2A
:10188000002301400020014070B505462DED048B7A
:1018900000686349634CDFED648A9FED649AB0EEA3
:1018A000008A884253D10121614800F0D1F809EE45
:1018B000900A02215E4800F0CBF8F8EE690A00EECB
:1018C000100A94ED001A5B48B8EE400A70EEC10AA7
:1018D00094ED011A584930EE410A60EEA80A20EE54
:1018E000280A60EE890A20EE090A60EE880A20EED6
:1018F000080AC0ED060A80ED040A30EE200AB1EEB7
:10190000400A80ED050A4D48FFF768FA4B48FFF79B
:10191000DDFD04F11001087830B1012809D002285A
:101920000CD003280FD012E091ED010A04F000F969
:101930000DE091ED010A04F097F808E091ED010A3D
:1019400004F07CF903E091ED010A04F011F93C493F
:101950002868884260D101213A4800F079F809EE00
:10196000900A0221374800F073F8F8EE690A00EE99
:10197000100A94ED021A2F48B8EE400A70EEC10A20
:1019800094ED031A2430304930EE410A60EEA80A83
:1019900020EE280A60EE890A20EE090A60EE880A25
:1019A00020EE080AC0ED060A80ED040A30EE200A97
:1019B000B1EE400A80ED050A2448FFF70FFA2348EC
:1019C000FFF704FE17481830017869B1012913D0D8
:1019D000022919D003291FD190ED010ABDEC048B17
:1019E000BDE8704004F0CCB990ED010ABDEC048B69
:1019F000BDE8704004F0A4B990ED010ABDEC048B81
:101A0000BDE8704004F038B990ED010ABDEC048BDC
:101A1000BDE8704004F01ABABDEC048B70BD000044
:101A200000200140C40000200000803933335340BF
:101A30004C01002054120020AC020020C4110020F0
:101A4000002101409401002000030020001200202A
:101A500008B5002200920368521F1A60012911D0B4
:101A600002290CD0032906D0042901D0009808BD12
:101A70000068806C01E00068406C009008BD006860
:101A8000006CFAE70068C06BF7E7000018B50021AA
:101A9000009190F83C20012A07D0012280F83C20D8
:101AA00002689368DB0702D011E0022018BD93683A
:101AB00043F001039360284A284B1268B2FBF3F20B
:101AC00002EB420200E0521E0092002AFBD10268A3
:101AD0009368DB0735D0036C42F20104A34343F45F
:101AE00080530364036CDB0500D4416480F83C1030
:101AF0006FF0040111601A4949680068C9068168DD
:101B000001F440110FD0D1B100224168154B41F3CF
:101B10008021491C98421CD1DAB1D1B1816841F4CD
:101B20008001816015E041B10021426842F38022CA
:101B3000521C71B1002AF1D10BE00121F5E701221D
:101B4000E3E7016C41F010010164416C41F00101D7
:101B50004164002018BD00005400002040420F00E6
:101B6000002301400020014078B50024009490F843
:101B70003C20012A19D0012280F83C200A68072362
:101B80000568092A13D9EE680A3A02EB420293402B
:101B90009E43EE600B788A680A3B03EB43039A404E
:101BA0000368DD682A43DA6010E0022078BD2E6900
:101BB00002EB420293409E432E610B788A6803EB4E
:101BC00043039A4003681D692A431A614A681F2328
:101BD000072A13D205686E6B521E02EB82029340F5
:101BE0009E436E630B790A885B1E92B203EB8303FC
:101BF0009A4003685D6B2A435A6327E005680D2A03
:101C000012D22E6BD21F02EB820293409E432E63B0
:101C10000B790A88DB1F92B203EB83039A400368B7
:101C20001D6B2A431A6311E0EE6A0D3A02EB820241
:101C300093409E43EE620B790A880D3B92B203EB10
:101C400083039A400368DD6A2A43DA62164B05680B
:101C5000144A9D4206D10D68122D03D1556845F4F2
:101C60008005556005689D4218D10B68102B01D086
:101C7000112B13D1536843F40003536009681029F2
:101C80000CD10A490A4A0968B1FBF2F101EB810162
:101C9000490000E0491E00910029FBD180F83C403A
:101CA000002078BD002301400020014054000020A6
:101CB00040420F007047704770470068C06C704723
:101CC00070B5044600680668456816F0020F05F016
:101CD00020012AD049B3216CC90603D4216C41F4F8
:101CE00000712164816811F0405F17D1217EA9B98C
:101CF000C16A11F4700F02D0816849050ED44168A1
:101D000021F020014160206C20F480702064206C60
:101D1000C00403D4206C40F0010020642046FFF78B
:101D2000C9FF21686FF01200086016F0040F05F07B
:101D3000800132D089B3206CC00603D4206C40F4FB
:101D4000005020642068816811F4401F1ED1816B0F
:101D500011F4401F02D08168490517D44168490534
:101D600014D4816811F0405F10D1217E71B94168AF
:101D700021F080014160206C20F480502064206CB0
:101D8000C00503D4206C40F0010020642046FFF71A
:101D90007BFD21686FF00C00086016F0010F05F064
:101DA00040010FD071B120680068C0070AD0206CD4
:101DB00040F480302064204600F043F821686FF042
:101DC0000100086016F0200F05F080610ED0002998
:101DD0000CD0606C40F00200606420686FF0200559
:101DE00005602046FFF768FF2068056070BD70B58C
:101DF00004004FF0000503D0206C002610B107E06E
:101E0000012070BD204600F01DF8666484F83C6037
:101E1000206CC00610D4206C20F4885040F00200E2
:101E200020642046FEF718FF6664206C20F0020054
:101E300040F00100206400E0012584F83C60284661
:101E400070BD7047F0B587B0064614216846FEF7AE
:101E5000FEF94448424A33680024424914380325B5
:101E6000414F934211D10A6842F480720A600968B6
:101E700001F480710591016841F001010160006881
:101E800000F0010005901E2025E0DFF8E0C0384A90
:101E9000634531D10B6843F400730B60096801F4AA
:101EA00000710591016841F004010160016801F0D1
:101EB00004010591016841F0010101600068694673
:101EC00000F0010005902320CDE9000502941046A2
:101ED00000F0B0FD0120CDE90005694602943846C6
:101EE00000F0A8FD00220121122001F081F912204A
:101EF00001F070F907B0F0BD1E4FBB42FAD10B687C
:101F000043F480630B60096801F480610591016806
:101F100041F0040101600068694600F0040005908A
:101F20000C20CDE900050294104600F083FD134D0E
:101F3000114828608005C5E901040014C5E9034083
:101F4000400068618000C5E906042C6228466C6286
:101F500000F008FC08B1FFF7A8F9B563AE63C1E76C
:101F600000200140443802400000024000210140AE
:101F700000080240002201401064024024020020B8
:101F80002DE9F041044600680D4681684FF00007D6
:101F900049050BD58068C00508D5206C40F02000AD
:101FA000206484F83C700120BDE8F08100F040FE20
:101FB000064613E0681C11D025B100F039FE801BE5
:101FC000A8420BD920680068800707D4206C40F035
:101FD0000400206484F83C700320E5E72068006872
:101FE0008007E7D521686FF012000860206C40F48C
:101FF000007020642068816811F0405F13D1217E59
:1020000089B9C16A11F4700F02D0806840050AD402
:10201000206C20F480702064206CC00403D4206CF9
:1020200040F0010020640020BEE7000018B5002148
:10203000009190F83C20012A07D0012280F83C2032
:1020400002689368DB0702D011E0022018BD936894
:1020500043F0010393602E4A2E4B1268B2FBF3F259
:1020600002EB420200E0521E0092002AFBD10268FD
:102070009368DB0742D0036C40F20164A34343F44E
:102080008073036453685B0505D5036C23F4005328
:1020900043F480530364036CDB0404D5436C23F0E6
:1020A0000603436400E0416480F83C101A496FF075
:1020B0002203136049680068CA06184906D088429E
:1020C00024D1816811F0405F13D01FE08842F8D01E
:1020D000134A904203D1D1F80423D206F1D0114A19
:1020E000904213D1D1F8041301F01F011029E8D355
:1020F0000CE0816841F08041816007E0016C41F0B3
:1021000010010164416C41F001014164002018BDDF
:102110005400002040420F000023014000200140F5
:102120000021014000220140F8B5044600200E467F
:10213000009094F83C10012907D0012184F83C104C
:1021400021688B68DB0702D011E00220F8BD8B68A4
:1021500043F001038B604049404B0968B1FBF3F148
:1021600001EB410100E0491E00910029FBD12168EB
:102170008B68DB0503D58B6823F480738B60216843
:102180008B68DB075DD0236C40F20165AB4343F401
:10219000807323644968490505D5216C21F40051F9
:1021A00041F480512164216CC90404D5616C21F093
:1021B0000601616400E0606484F83C00A16B29487A
:1021C000274DC863A16B28480864A16B2748C864E1
:1021D00021686FF0220008602068416841F080614A
:1021E00041602068816841F48071816021681346F4
:1021F00032464C31A06B00F01FFB68681C49C006DA
:10220000206806D0884224D1816811F0405F13D045
:102210001FE08842F8D0174A904203D1D1F8042336
:10222000D206F1D0144A904213D1D1F8041301F030
:102230001F011029E8D30CE0816841F080418160E2
:1022400007E0206C40F010002064606C40F001005A
:1022500060640020F8BD00005400002040420F00E0
:1022600000230140A50B0008290C0008130C0008EE
:1022700000200140002101400022014018B500214A
:10228000009190F83C20012A07D0012280F83C20E0
:1022900002689368DB0702D011E0022018BD936842
:1022A00043F001039360314A314B1268B2FBF3F201
:1022B00002EB420200E0521E0092002AFBD10268AB
:1022C0009368DB0747D0036C40F20164A34343F4F7
:1022D0008073036453685B0505D5036C23F40053D6
:1022E00043F480530364036CDB0404D5436C23F094
:1022F0000603436400E0416480F83C101D4B6FF01E
:102300002201116001684A681B4C22434A605968E7
:102310000068CA06194906D0884224D1816811F0A4
:10232000405F13D01FE08842F8D0154A904203D195
:10233000D1F80423D206F1D0124A904213D1D1F839
:10234000041301F01F011029E8D30CE0816841F06B
:102350008041816007E0016C41F010010164416C33
:1023600041F001014164002018BD0000540000202C
:1023700040420F00002301402000000400200140E3
:10238000002101400022014070B5040003D094F800
:10239000200010B104E0012070BD204600F082F85A
:1023A0002068016841F00101016000F041FC054630
:1023B000052604E000F03CFC401B0A2811D82068E8
:1023C0004068C007F6D02068016821F00201016072
:1023D00000F02EFC05460BE000F02AFC401B0A280A
:1023E00006D9606A40F40030606284F82060D2E769
:1023F000206840688007EFD4207E012820680168AB
:102400003DD021F080010160607E012820680168D4
:1024100038D021F040010160A07E012820680168C9
:1024200033D021F020010160E07E0128206801689E
:102430002ED041F010010160207F01282068016842
:1024400029D021F008010160607F0128206801681F
:1024500024D021F004010160D4E902010843D4E949
:102460000412114308436168491E08432168C8618A
:1024700000206062012084F82000002070BD41F03F
:102480008001C0E741F04001C5E741F02001CAE703
:1024900021F01001CFE741F00801D4E741F0040139
:1024A000D9E7000010B586B0044614216846FDF750
:1024B000CEFE1349206888421FD1124800210268CD
:1024C00042F000720260006800F0007005900D4854
:1024D0001038026842F0080202600068022200F030
:1024E000080005900320CDE90210CDE90002092083
:1024F00004906946044800F09DFA06B010BD000043
:102500000064004040380240000C02402DE9F041D8
:102510000446876D00F08CFB064694F835000025D4
:10252000022806D08020606584F834500120BDE880
:10253000F0812068016821F016010160206841697E
:1025400021F080014161206C08B9A06C20B12068A5
:10255000016821F0080101602068016821F0010193
:1025600001600CE000F064FB801B052807D92020E7
:102570006065032084F8350084F83450D7E720687C
:102580000068C007EED194F85C103F208840B86026
:10259000012084F8350084F834500020C7E790F813
:1025A0003510022903D080214165012070470521A3
:1025B00080F835100068016821F0010101600020F9
:1025C000704700002DE9F84304464FF00009CDF8AC
:1025D000009063484FF41651A56D0068B0FBF1F709
:1025E0002E6894F85C10082000FA01F131420FD0F7
:1025F00021680A6852070BD50A6822F004020A60B3
:1026000094F85C108840A860606D40F0010060653F
:1026100094F85C104FF0010808FA01F0304208D03D
:1026200021684969090604D5A860606D40F0020080
:10263000606594F85C1004208840304208D021681E
:102640000968890704D5A860606D40F004006065E2
:1026500094F85C1010208840304218D02168096836
:10266000090714D5A86020680168490304D50068EB
:10267000000308D5A16C07E00168C90503D401680F
:1026800021F008010160216C09B12046884794F8C7
:102690005C1020208840304231D021680968C9068A
:1026A0002DD5A86094F8350005282068016806D06B
:1026B000490347D5006800031DD4616C1CE021F07C
:1026C000160101602068416921F080014161206CA0
:1026D00008B9A06C20B12068016821F008010160F0
:1026E00094F85C103F208840A86084F8358084F816
:1026F0003490216D1FE0E16B09B120468847606D81
:1027000000282BD0606DC00714D0052084F8350058
:102710002068016821F0010101600098401C0090D0
:10272000B84203D820680068C007F6D184F8358025
:1027300084F83490E16C002910D001B02046BDE847
:10274000F04308470168C905D5D4016821F010019C
:10275000016084F8358084F83490CCE7BDE8F883D4
:10276000540000202DE9F041044600F061FA0646CD
:102770005CB1022084F83500002584F834502068CC
:10278000016821F0010101600DE00120BDE8F08148
:1027900000F04EFA801B052805D920206065032033
:1027A00084F83500F2E720680068C007F0D122689D
:1027B000116820480140D4E901031843D4E90336E5
:1027C0003343184363691843A3691843E369184303
:1027D000236A18430843616A042903D1D4E90B131F
:1027E00019430843106020684069666A20F00701B9
:1027F00030460E43012704280CD1A06A0643E06A44
:1028000040B12046FEF712FD20B14020606584F8FB
:102810003570BAE7206846612046FEF7F3FC94F86D
:102820005C203F2191408160656584F8357000200F
:10283000ACE700003F8010F02DE9F0410446866DC2
:1028400090F83400002501280DD0012084F83400D0
:1028500094F835700020012F07D084F83400022549
:102860002846BDE8F0810220FBE7022784F8357096
:1028700060652046FEF704FD94F85C103F20884018
:10288000B0602068016841F016010160206C20B141
:102890002068016841F0080101602068016841F08A
:1028A00001010160DCE7000070B5044600F0C0F9EA
:1028B0000546601C02D004480078044400F0B8F9D2
:1028C000401BA042FAD370BD480000202DE9F04F14
:1028D0000022DFF838B101264FF00F0906FA02F4A2
:1028E00001EA0403A3427DD122F003075F44D7F835
:1028F000088895074FEA157C09FA0CFA0AEA0805D8
:10290000DFF80C81404502D14FF0000832E0DFF8DB
:102910000481404502D14FF001082BE0DFF8F88038
:10292000404502D14FF0020824E0DFF8F080404536
:1029300002D14FF003081DE0DFF8E480404502D1EA
:102940004FF0040816E0DFF8DC80404502D14FF07C
:1029500005080FE0DFF8D080404502D14FF00608AF
:1029600008E0DFF8C880404502D14FF0070801E0D9
:102970004FF0080808FA0CF8A84522D12C4DD5F8DC
:1029800000C02CEA030CC5F800C005F1040CDCF80B
:1029900000509D43CCF80050254D0C35D5F800C0B3
:1029A0002CEA030CC5F800C02D1FD5F800C02CEA96
:1029B000030CC5F800C0D7F8085825EA0A05C7F87F
:1029C0000858056857000323BB409D430560D508A0
:1029D00000EB8505D5F820C057074FEAD76809FAFC
:1029E00008F700E00CE02CEA070CC5F820C0C56829
:1029F0009D43C5604568A543456084689C438460E9
:102A0000521C102AFFF46AAFBDE8F08F003001407D
:102A1000000002400004024000080240000C024096
:102A2000001002400014024000180240001C024046
:102A3000003C01402DE9F84FDFF8BCA10022012540
:102A400003264FF00F090AF1040BAAF1040E00BF90
:102A50000B6805FA02F42340A34270D10F7907F006
:102A60000307012F01D0022F16D187684FEA4208D1
:102A700006FA08FC27EA0C07D1F80CC00CFA08FC8F
:102A80004CEA070CC0F808C04768A7430C79C4F3A8
:102A9000001494403C4344600C79E443A4070AD0FA
:102AA000C4684FEA420C06FA0CF7BC438F6807FA79
:102AB0000CF72743C7600C7904F00304022C12D1F1
:102AC000D40800EB840CDCF820405707FF0E09FA0D
:102AD00007F824EA0804D1F8108008FA07F848EA51
:102AE0000408CCF8208004684FEA420C06FA0CF780
:102AF000BC430F7907F0030707FA0CF72743076079
:102B00004C6814F4403F70D03C4C276847F4804731
:102B10002760246822F0030704F480440094384CB2
:102B200007EB040CDCF8084897074FEA177809FA16
:102B300008F7BC43334FB84202D1002724E054E0E9
:102B4000314FB84201D101271EE0304FB84201D1C8
:102B5000022719E02E4FB84201D1032714E02D4F70
:102B6000B84201D104270FE02B4FB84201D105270D
:102B70000AE02A4FB84201D1062705E0284FB842A3
:102B800001D1072700E0082707FA08F72743CCF808
:102B90000878DAF800405746D1F804C09C435FEA51
:102BA000CC2C00D51C433C60DBF800405F46D1F8DC
:102BB00004C09C435FEA8C2C00D51C433C60DEF8CB
:102BC00000407746D1F804C09C435FEA8C3C00D5B6
:102BD0001C433C60084F083F3C68D1F804C09C434C
:102BE0005FEACC3C00D51C433C60521C102AFFF429
:102BF0002FAFBDE8F88F0000083C01404438024088
:102C00000030014000000240000402400008024081
:102C1000000C024000100240001402400018024064
:102C2000001C02400AB1816170470904FBE7000003
:102C300001488068704700004800002010B504007B
:102C400013D0242084F83D002068016821F00101A0
:102C50000160204600F0D2F90020206484F83D0095
:102C600044F8300FA073207310BD012010BD000088
:102C700070B5040025D094F83D00002520B984F8F3
:102C80003C50204600F0E6F9242084F83D002068FE
:102C9000016821F0010101602068016841F40041F0
:102CA00001602068016821F40041016000F00CFC23
:102CB0004D4A6168914201D84C4900E04C49884234
:102CC00001D2012070BD4B492368B0FBF1F15E6871
:102CD00026F03F060E435E606368934206D94FF4C8
:102CE000967359434FF47A73B1FBF3F12368491C8F
:102CF0001E6A26F03F06314319626168914210D87E
:102D00004900401EB0FBF1F2521CC2F30B02042A30
:102D100001D2042022E0B0FBF1F0401CC0F30B0014
:102D20001CE0A268F2B301EBC10303EB0116431EE2
:102D3000B3FBF6F35B1C43F480431B0549D092B30D
:102D400001EBC10202EB0111401EB0FBF1F0401C8F
:102D5000C0F30B0040F4804040F400402168CA6991
:102D60004CF6FF739A431043C861D4E9071001433E
:102D70002068026822F0C00211430160D4E9030117
:102D800001432068826848F2FF339A43114381600F
:102D9000D4E9050108432168CA6822F0FF02104304
:102DA000C86001E00EE016E02068016841F0010112
:102DB00001602564202084F83D00256384F83E509E
:102DC000002070BD01EB4106431EB3FBF6F35B1C14
:102DD000B3E70120C2E701EB4101401EB0FBF1F077
:102DE000401CC0F30B00B7E7A086010080841E00E2
:102DF00000093D0040420F002DE9FF4F83B09A4685
:102E0000DDE9118793460446DDF84090FFF710FF97
:102E1000054694F83D00202870D1192301227449F9
:102E20002046009502F0CCF80028F5D194F83C003B
:102E3000012863D0012084F83C0020680168C9079C
:102E400003D1016841F0010101602068016821F4AB
:102E500000610160222084F83D00402084F83E009B
:102E600000262664C4F82490A4F82A80608D20856A
:102E70006048E062CDE9007553465A462046049901
:102E800002F020F8002879D1208DD0B1012821D07E
:102E90000228206824D0416980690090208D032891
:102EA00066D801282BD0544902283B464FF0000237
:102EB000009557D08846204602F082F800285DD160
:102EC0003AE02068416981690091016841F400712C
:102ED00001607DE02068016821F480610160F0E715
:102EE000016821F4806101602068016841F400619B
:102EF0000160206841698069009069E075E02A46B8
:102F00003946204602F002F988BB54E02068016887
:102F100041F40071016020680069616A0870606AAC
:102F2000401C6062218D491E2185618D491E61858D
:102F300021680969017042E02068016821F480611C
:102F4000016020680069616A0870606A401C606204
:102F5000208D401E2085608D401E60853B460022EE
:102F600041460095204602F02BF800B9CEE705E077
:102F70002A463946204602F0C9F818B1012007B0A8
:102F8000BDE8F08F20680069616A0870606A401CC3
:102F90006062208D401E81B22185608D401E60855B
:102FA00020684269D243520712D4032903D1016831
:102FB00021F48061016020680069616A0870606ABC
:102FC000401C6062208D401E2085608D401E608503
:102FD000208D00287FF462AF202084F83D0084F823
:102FE0003E6084F83C600020C9E70220C7E700008B
:102FF000020010000000FFFF0400010010B500688F
:10300000104A1149114C904209D1086820F400106F
:10301000086089152046FFF759FC61150CE00C4A41
:1030200090420ED1086820F48000086011152046F7
:10303000FFF74CFC4FF400612046BDE81040FFF75D
:1030400045BC10BD0054004040380240000402401E
:1030500000580040F0B587B0044614216846FDF7DB
:10306000F6F82C49DFF8A8C027680022294C10394F
:103070001223032504262848674520D1276847F4F2
:1030800000172760276807F4001705970F6847F0B7
:1030900002070F60096802AF01F0020105912902E1
:1030A000CDE9001387E864006946FFF7C3FC206898
:1030B00040F400102060206800F4001024E0DFF8E5
:1030C0005CC0674521D1276847F4800727602768DF
:1030D00007F4800705970F6847F002070F6009683B
:1030E00002AF01F0020105914FF44061CDE90013F8
:1030F00087E864006946FFF79DFC206840F4800083
:103100002060206800F48000059007B0F0BD00004A
:103110000054004040380240000402400058004083
:10312000024881680278114481607047480000209D
:103130000B4810B5016841F400710160016841F469
:1031400080610160016841F480710160032000F03A
:103150006FF80F2000F006F800F024F8002010BDF2
:10316000003C024070B50D4D04464FF47A7128784A
:10317000B1FBF0F00A490968B1FBF0F000F053FD33
:1031800048B9102C07D200222146501E00F030F81A
:1031900000206C6070BD012070BD00004800002060
:1031A000540000200A4808B5016841F480410160DC
:1031B000006800F4804000900548001F016841F05D
:1031C00080510160006800F08050009008BD000050
:1031D00044380240002809DB00F01F020121914021
:1031E0004009800000F1E020C0F8001170470000A5
:1031F000F0B40E4B1B680C46C3F30223C3F1070562
:10320000042D00D90425191D072901D2002300E04F
:10321000DB1E012606FA05F1491E214099409E4019
:10322000761E16403143F0BC04F006BD0CED00E004
:10323000064900F0070208684FF6FF03184040EA0D
:103240000220034A10430860704700000CED00E0C4
:103250000000FA05F8B5040005D094F89504266836
:10326000002510B106E00120F8BD84F894542046F2
:1032700000F056F8032084F89504B6F1A04F00D171
:10328000A571206804F050FC207C8DF8000094E8C3
:103290000F0004F01DFB0226B8BB0021206804F0DB
:1032A00083FC90BB002001270DE000BF00EBC001B4
:1032B00004EB81014F750875C8850D76CD610D62EF
:1032C000401CC0B24D6221798142EFD8002011E04C
:1032D00000EBC00104EB810181F8555281F85402E2
:1032E00081F85852C1F85C52C1F86052401CC0B21B
:1032F000C1F8645221798142EAD8207C8DF800001F
:1033000094E80F0004F052FB10B184F89564AAE72A
:10331000657484F89574206804F03AFB0020F8BDC9
:1033200010B586B0044614216846FCF790FF20686B
:10333000B0F1A04F27D115480021026842F00102E8
:103340000260006800F0010005904FF4C05000904A
:103350000220CDE90101032003900A200490694670
:103360000B48FFF767FB0948001D016841F0800129
:10337000016006481430016841F480410160006832
:1033800000F48040059006B010BD000030380240C7
:10339000000002402DE9F0470E46050065D0DFF839
:1033A0001481D8F80000F7B200F00700B04207D24D
:1033B00088F80070D8F8000000F00700B04254D13F
:1033C00028683D4C810712D5400703D5206840F49A
:1033D000E05020602878000703D5206840F4604062
:1033E00020602068A96820F0F00008432060287859
:1033F000C0072DD0304968680839012812D002284A
:1034000013D0032811D00968890700292DDA216813
:1034100021F0030101432160FFF70AFC814641F2DC
:10342000883A0EE009688903EFE709688901ECE74B
:10343000FFF7FEFBA0EB0901514502D90320BDE8CF
:10344000F0872068696800F00C00B0EB810FEFD1C5
:10345000D8F80010404601F00701B14207D90770C3
:10346000006800F00700B04201D00120E7E72878AB
:10347000400705D52068E96820F4E0500843206043
:103480002878000706D52068296920F4604040EAC2
:10349000C100206000F038F82168084AC1F3031128
:1034A000515CC8400649086006480068FFF75AFEAC
:1034B0000020C4E7003C024008380240C4850008F0
:1034C000540000204C0000200448054900680968A9
:1034D000044AC1F38221515CC84070475400002067
:1034E00008380240D4850008044805490068096886
:1034F000044AC1F34231515CC84070475400002077
:1035000008380240D4850008154810B5006810F04E
:103510000C02144813D01449042A0FD0082A0ED1E3
:103520000F4C241F2268236802F03F025B0207D57C
:103530002068C0F38810A0FB010106E0084610BD1A
:103540002168C1F38811A1FB00010023FCF738FEBC
:103550002168C1F30141491C4900B0FBF1F010BDE5
:10356000083802400024F40040787D012DE9F84F2E
:1035700004006ED02078DFF84C93C007A9F1040551
:103580004AD009F104000168C1F38101012908D082
:103590000068C0F3810002280AD1D9F80000400277
:1035A00006D52868800337D560680028E1D033E06D
:1035B0006068B0F5803F10D0B0F5A02F286810D01B
:1035C00020F480302860286820F48020286060681B
:1035D000A8B1FFF72DFB06460DE0286840F48030C7
:1035E000F4E740F480202860F7E700BFFFF720FBF6
:1035F000801B642873D828688003F7D50CE0FFF798
:1036000017FB064605E000BFFFF712FB801B64288E
:10361000F0D828688003F7D42078DFF8AC828007E0
:103620004FF0000A3ED5A748001D016811F00C0FAD
:1036300008D00068C0F3810002280BD1D9F800003F
:10364000400207D42868800716D5E068012800D119
:1036500012E033E1E068B8B10120C8F80000FFF7DC
:10366000E7FA064605E000BFFFF7E2FA801B0228F2
:10367000C0D828688007F7D52868216920F0F800AD
:1036800040EAC10028600DE0C8F800A0FFF7D0FABA
:10369000064604E0FFF7CCFA801B02281FD82868F2
:1036A0008007F7D42078000722D5864F87486169C4
:1036B000703771B101210160FFF7BAFA064604E0E4
:1036C000FFF7B6FA801B022809D838688007F7D5BB
:1036D0000EE0C0F800A0FFF7ABFA064605E082E076
:1036E000FFF7A6FA801B02287DD838688007F7D438
:1036F0002078400768D5DFF8CCB100270BF13C0BF0
:10370000DBF80000C0000BD4DBF8001041F0805162
:10371000CBF80010DBF80000012700F0805000908B
:103720006B4E3068C00510D4306840F48070306053
:10373000FFF77EFA009005E0FFF77AFA0099401A49
:10374000022850D83068C005F6D55E4EA0686C36A9
:1037500001280FD00528306810D020F0010030601B
:10376000306820F004003060A068B8B1FFF760FA5C
:1037700000900FE0306840F00100F4E740F00400F2
:103780003060F7E7FFF754FA0099411A41F28830A8
:10379000814266D830688007F4D50EE0FFF748FA1A
:1037A000009007E0FFF744FA0099411A41F288308F
:1037B000814256D830688007F4D42FB1DBF800106E
:1037C00021F08051CBF80010A069C8B33D49091D14
:1037D0000968C1F3810102294AD00228504607D066
:1037E000C8F8600000E03CE0FFF722FA04463BE046
:1037F0004746C8F86000FFF71BFA064605E000BF21
:10380000FFF716FA801B02282BD828688001F7D40E
:10381000D4E907010843A16A2E4A490802EB014195
:10382000626A41EA8211084394F82C1040EA01616F
:10383000C9F8001001203866FFF7FAF9044606E0DF
:103840003EE000BFFFF7F4F9001B022809D8286802
:103850008001F7D534E000BFFFF7EAF9001B02282A
:1038600002D90320BDE8F88F28688001F4D427E04E
:103870000128F7D0D9F80000E26900F480019142F4
:103880001CD1226A00F03F01914217D147F6C07166
:10389000626A0140B1EB821F10D1A26A4FF0FF3380
:1038A00000F4403103EB5202B1EB024F06D194F821
:1038B0002C1000F07060B0EB016F01D00120D1E757
:1038C0000020CFE70438024000004742800E474204
:1038D000007000400000FFFF70B5040009D0606A6E
:1038E000002540B125616561A56294F8510040B1A1
:1038F0000CE0012070BD6068B0F5827FF4D0E56116
:10390000F2E784F85050204600F044F8022084F892
:1039100051002068016821F040010160A0882189E0
:1039200000F4827001F404410843A18901F40061AC
:103930000843217C01F002010843217D01F00101CF
:103940000843218B01F400710843217F01F0380105
:10395000084394F8201001F080010843218D01F400
:103960000051084321680860A069042101EA104061
:1039700094F8241001F01001084321684860206881
:10398000C16921F40061C1616565012084F85100BD
:10399000002070BDF0B587B0064614216846FCF7DC
:1039A00056FC3F48D6F800C000253E4902220323BA
:1039B00005273D4C844519D13A481430066846F431
:1039C00080560660006800F480500590086840F05A
:1039D000020008600868694600F00200059028208F
:1039E0008DE82500CDE90337204656E02D48DFF865
:1039F000BCE01030F44534D1D0F800C04CF4804C19
:103A0000C0F800C0006800F480400590086840F0ED
:103A1000020008600868694600F0020005904FF453
:103A200060408DE82500CDE903372046FFF702F816
:103A3000204C1F48C4E900054020C4E902050001EC
:103A4000C4E904058010C4E9065025622046656279
:103A5000FEF788FE08B1FDF728FCB464A66307B042
:103A6000F0BD154CA445FAD1046844F40044046048
:103A7000006800F400400590086840F00400086009
:103A80000868694600F0040005904FF4E0508DE8A6
:103A900025000620CDE903300848FEF7CBFFDEE71E
:103AA000003001403038024000040240003800403D
:103AB000706002405C040020003C004000080240AE
:103AC0002DE9F84F984616468A460446FFF7B0F8A7
:103AD000814694F8510001281ED1BAF1000F73D02D
:103AE000002E71D094F85000012815D0012784F8D9
:103AF0005070032084F8510000256565C4F830A09B
:103B0000A686E686A563A587E58765642564A06823
:103B1000B0F5004F03D00CE00220BDE8F88F20681C
:103B2000016821F0400101602068016841F4804192
:103B3000016020680168490603D4016841F0400132
:103B40000160E068B0F5006F606803D048B3012EF3
:103B500027D047E008B1012E1FD1206B21680088D3
:103B6000C86006E020688168890709D5216B09884B
:103B7000C160206B801C2063E08E401EE0860CE05C
:103B8000FFF756F8A0EB0901414503D3B8F1FF3F19
:103B900003D035E0B8F1000F32D0E08E0028E1D13B
:103BA00023E0206B21680078087306E020688168B4
:103BB00089070AD5216B09780173206B401C2063AB
:103BC000E08E401EE0860DE02BE0FFF731F8A0EB21
:103BD0000901414503D3B8F1FF3F03D010E0B8F12C
:103BE000000F0DD0E08E0028E0D14A464146204625
:103BF00003F050F808B120206065A06830B109E0FA
:103C000084F8517084F85050032086E72068C1681A
:103C10008068009084F8517004F8505F6068002854
:103C2000F3D0012079E710B5401EB0F1807F01D3B9
:103C3000012010BD4FF0E02460610F21601703F0F8
:103C4000FBFF0020A06107202061002010BD70470D
:103C5000704710B590F83C20012A22D0012280F84C
:103C60003C20CA688C6822F4407222434C6822F4DB
:103C7000806222430C6822F4006222430C6922F421
:103C8000805222434C6922F400522243C969002326
:103C900022F480420A4301684A6480F83C300020E4
:103CA00010BD022010BD000070B590F83C20012A24
:103CB00032D0012480F83C40022280F83D20036885
:103CC0005A689D6822F070060A6832435A60134BA6
:103CD00002689A4214D0B2F1804F11D0104B9A4230
:103CE0000ED0104B9A420BD00F4B9A4208D00F4B7C
:103CF0009A4205D00E4B9A4202D00E4B9A4204D102
:103D0000496825F080031943916080F83D40002107
:103D100080F83C10084670BD022070BD00000140D4
:103D20000004004000080040000C00400004014076
:103D3000004001400018004010B50446022249B17D
:103D400004290ED0082913D094F84500012816D074
:103D5000012010BD94F842000128F9D184F84220D6
:103D60000FE094F843000128F2D184F8432008E0E2
:103D700094F844000128EBD184F8442001E084F851
:103D800045200422206803F03AFA2068416C41F48F
:103D90000041416411492068884214D0B0F1804F3D
:103DA00011D00F4988420ED00E4988420BD00E49DF
:103DB000884208D00D49884205D00D49884202D07A
:103DC0000C49884204D1816801F00701062903D01B
:103DD000016841F001010160002010BD00000140B8
:103DE0000004004000080040000C004000040140B6
:103DF000004001400018004010B5040003D094F8C2
:103E00003D0010B107E0012010BD002084F83C0007
:103E1000204600F01FF8022084F83D00211D206894
:103E200003F074F9012084F8460084F83E0084F819
:103E30003F0084F8400084F8410084F8420084F890
:103E4000430084F8440084F8450084F83D000020D5
:103E500010BD0000F0B587B0054614216846FCF798
:103E6000F6F9554853492B680022534C1438022662
:103E70008B4221D1216841F001012160216801F0CC
:103E800001010591016841F0100101600068694677
:103E900000F010000590B0030090CDE90162012010
:103EA000CDE903204548FEF7C5FD00220121182079
:103EB000FFF79EF9182043E03F49091FB3F1804FF7
:103EC0000CD03F4FBB4211D1086840F0020008609F
:103ED000086800F00200059007B0F0BD086840F0E7
:103EE00001000860086800F00100F4E7354FBB42AC
:103EF00029D1086840F0040008600868334C00F0DD
:103F000004000590304820608005C4E901020014D7
:103F1000C4E90320400060618000A0614011C4E951
:103F2000070220466262FEF71DFC08B1FDF7BDF9ED
:103F30006C62002201211E20A563FFF759F91E20A3
:103F4000FFF748F9C8E7224DAB420ED1086840F0B0
:103F5000100008600868002200F01000059011466B
:103F60003620FFF745F93620EAE71A498B42B3D1EC
:103F7000216841F002012160216801F002010591F0
:103F8000016841F0010101600068694600F001002C
:103F9000059040200090CDE901620320CDE9032087
:103FA0000D48FEF747FD002201212B20FFF720F9E5
:103FB0002B20C5E7000001404438024000100240B9
:103FC0000004004000080040106002406C06002021
:103FD00000100040000401400000024090F83D1035
:103FE000012901D001207047022180F83D100068AE
:103FF0001149884214D0B0F1804F11D00F49884246
:104000000ED00F4988420BD00E49884208D00E4985
:10401000884205D00D49884202D00D49884204D11A
:10402000816801F00701062903D0016841F0010110
:1040300001600020704700000000014000040040C3
:1040400000080040000C0040000401400040014016
:104050000018004090F83D10012901D00120704760
:10406000022180F83D100168CA6842F00102CA606E
:1040700000681149884214D0B0F1804F11D00F4927
:1040800088420ED00E4988420BD00E49884208D093
:104090000D49884205D00D49884202D00C4988421A
:1040A00004D1816801F00701062903D0016841F0BD
:1040B0000101016000207047000001400004004041
:1040C00000080040000C0040000401400040014096
:1040D0000018004070B5044690F83C000025012807
:1040E00017D0012684F83C60022084F83D00206847
:1040F000826822F0770222F47F42826008685028AA
:1041000038D00DDC20284FD005DC90B3102811D119
:104110004AE0022070BD302846D040280AD13BE05A
:1041200060282FD070280DD0B0F5805F03D0B0F597
:10413000005F12D0012584F83D60002084F83C0027
:10414000284670BDCB68D1E90121206803F064F8EE
:104150002068816841F0770109E0CB68D1E901214D
:10416000206803F059F82068816841F4804181603B
:10417000E1E719E0CA684968206803F021F9502195
:10418000206806E0CA684968206803F02AF96021BF
:10419000206803F04BF8CEE7CA684968206803F04E
:1041A0000FF940212068F4E7226801461046F0E745
:1041B00070472DE9F04104460068C66805694FF074
:1041C0000007A90713D5B10711D5F91E0161012018
:1041D0002077206880698007204602D0FFF7E8FF3B
:1041E00004E000F02FF9204600F0C1F927776807B6
:1041F00016D5700714D521686FF0040008610220FD
:1042000020772068806910F4407F204602D0FFF7B5
:10421000CFFF04E000F016F9204600F0A8F9277758
:10422000280715D5300713D521686FF008000861FD
:10423000042020772068C0698007204602D0FFF75D
:10424000B7FF04E000F0FEF8204600F090F9277771
:10425000E80616D5F00614D521686FF01000086145
:10426000082020772068C06910F4407F204602D0E3
:10427000FFF79EFF04E000F0E5F8204600F077F934
:104280002777E80708D0F00706D021686FF0010013
:104290000861204600F0D0F9280608D5300606D57A
:1042A00021686FF0800008612046FFF7D0FC6806A7
:1042B00008D5700606D521686FF0400008612046D9
:1042C00000F04EFBA8060AD5B00608D521686FF0AD
:1042D000200008612046BDE8F041FFF7B9BCBDE809
:1042E000F08100002DE9F04186B0044614216846B3
:1042F000FBF7ADFF4A4A216800244A480225914253
:1043000012D1016841F0100101600068694600F0B7
:10431000100005904FF47C500090CDE9015401202D
:10432000CDE90340404827E0404B414ADFF8048193
:10433000994226D1016841F001010160016801F054
:1043400001010591016841F00401016000686946BE
:1043500000F00400059080200090CDE90154104643
:10436000CDE90345FEF766FB4FF400700090CDE900
:1043700001546946404616E0FEF75CFB06B0BDE816
:10438000F0812D4B2D4E994210D1016841F0020170
:1043900001600068694600F002000590402000902E
:1043A000CDE901543046CDE90345E5E7244B994278
:1043B000E4D1016841F001010160016801F00101EF
:1043C0000591016841F002010160016801F00201FC
:1043D0000591016841F0040101600068032700F0C5
:1043E0000400059020200090CDE90154CDE9034759
:1043F00069461046FEF71EFB0097CDE90154CDE952
:10440000034769463046FEF715FB4FF4E070009015
:10441000CDE90154CDE9034769464046ACE70000C9
:10442000000001403038024000100240000400400B
:104430000000024000080240000800400004024062
:1044400000040140704770B5044690F83C00002617
:104450000D4601280FD0012084F83C006AB1042ADF
:104460001DD0082A2FD00C2A3FD00126002084F826
:104470003C00304670BD022070BD206802F0DEFEB8
:104480002068816941F0080181612068816921F01B
:1044900004018161206881692A69114311E0206863
:1044A00002F0FCFE2068816941F4006181612068AE
:1044B000816921F480618161206881692A6941EA0A
:1044C00002218161D2E7206802F01EFF2068C169E5
:1044D00041F00801C1612068C16921F00401C16196
:1044E0002068C1692A69114311E0206802F040FF89
:1044F0002068C16941F40061C1612068C16921F48B
:104500008061C1612068C1692A6941EA0221C161F3
:10451000ACE710B5040003D094F83D0010B107E0FB
:10452000012010BD002084F83C00204600F01EF859
:10453000022084F83D00211D206802F0E7FD0120E3
:1045400084F8460084F83E0084F83F0084F8400078
:1045500084F8410084F8420084F8430084F8440061
:1045600084F8450084F83D00002010BD7047704776
:1045700010B50446022249B104290ED0082913D0EF
:1045800094F84100012816D0012010BD94F83E0097
:104590000128F9D184F83E200FE094F83F0001286B
:1045A000F2D184F83F2008E094F840000128EBD1D4
:1045B00084F8402001E084F841200122206802F0C4
:1045C00011FE16492068164A884201D0904203D154
:1045D000436C43F4004343642068884213D0B0F135
:1045E000804F10D00F4988420DD00F4988420AD021
:1045F0000E49884207D0904205D00D49884202D02A
:104600000C49884204D1816801F00701062903D0D2
:10461000016841F001010160002010BD000001406F
:10462000000401400004004000080040000C00406D
:1046300000400140001800402DE9F04105462DEDF5
:10464000028B00260068B349B34C88427ED100211A
:10465000B24802F001FB00EE100AA081B8EE400A59
:104660009FEDAF8A20EE080A84ED050ADFEDAD0A62
:1046700020EE200ABCEEC00A10EE100A80B2608163
:10468000E1884143642091FBF0F0A74980B220818A
:1046900009684A6B824200D04863FCF771FB2079BD
:1046A00009286DD126710121A04802F0D5FA00EE4B
:1046B000100AF2EE060A9E49B8EE400AE08120EEAA
:1046C000080A20EE200A84ED060A91ED000ABCEEED
:1046D000C00A10EE100A80B2208291ED010ABCEEF1
:1046E000C00A10EE101A00EE100A89B2B8EE400AA5
:1046F000618260EE081A00EE101AC4ED071AB8EED7
:10470000400A60EE080AC4ED080A9FED8A1A81EE9D
:10471000210AF7EE001A81EE202A30EE610A84EDBC
:10472000090A72EE610AF7EE001AC4ED0A0A9FED5B
:10473000828AB0EE481ADFED818AF0EE680A02F054
:104740003DFA84ED0B0AF7EE001A00E01BE0B0EE34
:10475000481AF0EE680A94ED0A0A02F02FFA84ED86
:104760000C0A94ED0B0A764802F006F9744884EDC1
:104770000B0A94ED0C0A0C3002F0FEF884ED0C0AE2
:104780002079401C20716F49286888425ED1A0784A
:10479000401CC0B2A070062812D1A67094ED060A83
:1047A00001F0CEF86178207800F0CCFF94ED060A95
:1047B00000F09EFFD4ED0C0A94ED0B0A01F028F8EE
:1047C000614801786148007800F078FE6048D0EDDB
:1047D000070A9FED600A604860EE800A90ED071AB4
:1047E00021EE000A00F084FEA07804282ED14FF4B8
:1047F0000051E078594D4E008F00092826D2DFE89D
:1048000000F0250515293949596979000022284603
:10481000FEF708FA002231462846FEF703FA002286
:1048200039462846FEF7FEF902200EE0012228460E
:10483000FEF7F8F9002231462846FEF7F3F9002288
:1048400039462846FEF7EEF90320E070BDEC028BF6
:10485000BDE8F08100222846FEF7E4F90122314646
:104860002846FEF7DFF9002239462846FEF7DAF936
:104870000420EAE701222846FEF7D4F90122314656
:104880002846FEF7CFF9002239462846FEF7CAF936
:104890000520DAE700222846FEF7C4F90022314657
:1048A0002846FEF7BFF9012239462846FEF7BAF935
:1048B0000620CAE700222846FEF7B4F90122314655
:1048C0002846FEF7AFF9012239462846FEF7AAF935
:1048D0000720BAE701222846FEF7A4F90022314654
:1048E0002846FEF79FF9012239462846FEF79AF935
:1048F0000820AAE701222846FEF794F90122314652
:104900002846FEF78FF9012239462846FEF78AF934
:1049100001209AE7000800400000002094010020D8
:104920003333533A9B6CF241940500204C01002034
:104930003C00002066661E4100007042000000003E
:104940000001002000100040DC000020D400002006
:10495000001200209A993141C4110020000C02403D
:104960007047704710B504460068406994F84110DC
:10497000C0F3C010212911D180B12068143050E853
:10498000001F21F0800140E80012002AF5D1A06B41
:1049900008B1FDF7BBFD204602F0DBFD2068406951
:1049A00094F84210C0F38010222911D180B1206800
:1049B000143050E8001F21F0400140E80012002AA6
:1049C000F5D1E06B08B1FDF7A1FD204602F09AFD9C
:1049D000002010BD70470000F8B501680446086863
:1049E000CA684B6910F00F0F4FF0000559D003F063
:1049F000010602F49077374365D0C10705D0D10591
:104A000003D5616C41F001016164410705D5D90707
:104A100003D0616C41F002016164810705D5D907BB
:104A200003D0616C41F004016164010707D502F015
:104A30002001314303D0616C41F008016164616C75
:104A400000293AD0800604D5900602D5204602F00F
:104A50008EFD20684069616CC0F38010090700D4A6
:104A600060B3204602F04EFD20684069400621D523
:104A70002068143050E8001F21F0400140E8001287
:104A8000002AF5D1E06BA8B16E490165E06BFDF736
:104A900086FD002811D0E06B016D01B0BDE8F0404B
:104AA000084783060FD593060DD52046BDE8F8408C
:104AB00002F05DBD2046FFF78DFFF8BD2046FFF7F1
:104AC00089FF6564F8BD266B2023012E7DD1C606C3
:104AD0007BD5D60679D508684868009048694FF0BC
:104AE0000206400641D5E16B086840680004000CEE
:104AF000E8D0A28D8242E5D9E085C869B0F5807F13
:104B00002DD020680C3050E8001F21F4807140E85F
:104B10000012002AF5D12068143050E8001F21F05F
:104B2000010140E80012002AF5D12068143050E855
:104B3000001F21F0400140E80012002AF5D184F85E
:104B40004230256320680C3050E8001F21F010012E
:104B500040E80012002AF5D1E06BFDF7D7FC666350
:104B6000A08DE18D401A81B22AE0A08DE18D401A1E
:104B700081B2E08D0028A5D00029A3D022680C3294
:104B800052E8000F20F4907042E80007002FF5D1A2
:104B90002068143050E8002F22F0010240E800277E
:104BA000002FF5D184F84230256320680C3050E89E
:104BB000002F22F0100240E80023002BF5D166639D
:104BC0002046FFF7CEFEF8BDFFE705062BD51506FC
:104BD00029D594F841002128F5D1A068B0F5805F6F
:104BE00001D12069B0B1206A411C2162216800789E
:104BF0004860E08C401E0004000CE084E3D1206893
:104C0000C16821F08001C1602068C16841F04001A5
:104C1000C160D8E7206A0088C0F308004860206AB5
:104C2000801C2062E5E74006CDD55006CBD5CA688A
:104C3000204622F04002CA6084F8413000F028F992
:104C4000C1E700000774000870B5040004D094F8B0
:104C50004100002510B106E0012070BD84F84050ED
:104C6000204600F023F8242084F841002068C16821
:104C700021F40051C160204602F0DAFC206801698D
:104C800021F4904101612068416921F02A014161CC
:104C90002068C16841F40051C1606564202084F837
:104CA000410084F842006563002070BD2DE9F041A9
:104CB00086B0064614216846FBF7C9FA3D4F3168B5
:104CC0003D480222032307250024B94253D13A4923
:104CD00014310F6847F010070F60096801F01001E8
:104CE0000591016841F0010101600068694600F02A
:104CF0000100059058028DE81500CDE903352F48D5
:104D0000FDF798FE2F4D2E484FF000682860C5E94A
:104D100001840715C5E903476C61AC61EC612C6245
:104D200028466C62FDF71EFD08B1FCF7BEFAF5637C
:104D3000AE63244D224860357830E5E80208402013
:104D400091C5204845F814496030AC61EC612C6293
:104D50006C62FDF707FD08B1FCF7A7FAB563002206
:104D600011462520AE63FEF743FA2520FEF732FAFE
:104D700006B0BDE8F081144EB142F9D10E491031B0
:104D80000E6846F400360E60096801F400310591A2
:104D9000016841F0080101600068694600F0080000
:104DA000059070208DE81500CDE903350748FDF723
:104DB00041FEDDE7001001403038024000000240B3
:104DC000406402405C07002000440040000C0240A8
:104DD00090F84230202B01D00220704721B11AB147
:104DE0000023036302F0AABC01207047704770479C
:104DF0002DE9F843044690F84100984616460D46C2
:104E0000202802D00220BDE8F88385B17EB10020C1
:104E10006064212084F84100FDF70AFFA6848146E2
:104E2000E684A0682027B0F5805F02D003E001206F
:104E3000E9E7206910B12E4600250EE000260CE0BF
:104E40008021204602F0C2FCA8B9C6B116F8010BB9
:104E500021684860E08C401EE084E08C4B464FF0B7
:104E60000002CDF800800028EAD14FF04001204632
:104E700002F0ACFC40B184F841700320C3E735F880
:104E8000020BC0F30800E3E784F841700020BAE7A2
:104E90007047FEE701684A69D24352050FD46FF4A8
:104EA00080624A61002140F8301F202242738173E2
:104EB000026942F004020261017301207047002080
:104EC000704700002DE9F84F0446006889460B9DA5
:104ED00001689846174641F48061016020680168C6
:104EE00041F48071016000954FF0011B002259468A
:104EF00020460A9B00F064F84FF4007A40B1206825
:104F00000068C00501D5C4F840A00320BDE8F88FB3
:104F1000216809F0FE0008612B46284920460A9ABC
:104F200000F096F8F0BB20684169806900902A463D
:104F300020460A9900F022F940B1206C04283AD1A9
:104F40002068016841F40071016034E0FEB2B8F1FC
:104F5000010F09D02168380A08612A4620460A99BB
:104F600000F00CF90028E8D1206806612A462046A6
:104F70000A9900F003F90028DFD12068016841F4A4
:104F80008071016000950022594620460A9B00F07E
:104F900017F80028B3D1216809F0FF0040F00100A4
:104FA000086100E007E02B46044920460A9A00F019
:104FB0004FF80028AAD00120A8E700000200010055
:104FC0002DE9F047984617460D460446C1F30746BB
:104FD000DDF820902AE000BFB8F1FF3F26D0FDF7B2
:104FE00027FEA0EB0901414502D8B8F1000F1DD101
:104FF0002068012E16D0806925EA00000004000C0C
:1050000012D00020B84211D1002044F8300F2021E6
:105010006173A073216941F0200121612073012097
:10502000BDE8F0874069E7E70120EBE72068012E43
:105030000AD0806925EA00000004000C06D0002098
:10504000B842C9D00020EBE74069F3E70120F7E759
:105050002DE9F047984616460D4604464FF00009E4
:105060004FF0200AC1F3074723E020684069C0439E
:10507000400515D42068016841F400710160216881
:105080006FF480604861C4F8309084F83DA084F8E3
:105090003E90216C41F00401216484F83C9021E0B1
:1050A000701C06D0FDF7C4FDA0EB0800B04203D889
:1050B00016B1012F1FD021E02068012F15D0806983
:1050C00025EA00000004000C18D000BF44F8309F0F
:1050D00084F80DA084F80E90216941F0200121612F
:1050E00084F80C900120BDE8F087406925EA0000B3
:1050F0000004000CEAD12068406901E02068806962
:1051000025EA00000004000CAFD1ECE72DE9F041E6
:10511000002590460E460446202728E04069C043FB
:10512000C0060CD454F8301B6FF01000486144F8EE
:1051300010596777A577206A2062257714E0FDF77C
:1051400077FDA0EB0800B04200D886B9206840691E
:10515000C04340060BD544F8305F6773A5732069E0
:1051600040F02000206125730120BDE8F081206817
:105170004169C9434906D1D40020F6E770B5164607
:105180000D4604461EE02046FFF784FE08B10120CC
:1051900070BD681C16D0FDF74BFD801BA84200D8DF
:1051A00085B920684069C04300060BD5002044F84B
:1051B000300F20216173A073216941F0200121612A
:1051C0002073E4E720684069C0430006DBD4002078
:1051D00070BD2DE9F04104461F4615460E462A20B3
:1051E00000F026FC2834C4F3072000F02FFCE0B2C6
:1051F00000F02CFC2835C5F3072000F027FCE8B2AE
:1052000000F024FC2B2000F013FC3536C6F30720F9
:1052100000F01CFCF0B200F019FC3537C7F3072092
:1052200000F014FCF8B200F011FCBDE8F0412C20B5
:1052300000F0FEBB70B5040AC5B200218623EF2240
:105240000846FFF7C6FF0F4900204FF4A27200BFC7
:1052500001F8104001EB4003401C80B25D709042A9
:10526000F6D3012210210848FDF7DCFC00244FF49E
:1052700022752946034800F0DFF8641CA4B2642CB0
:10528000F7D370BD1C0E00200004024010B5694C1D
:10529000002208212046FDF7C5FC0C20FDF704FB89
:1052A000012208212046FDF7BDFC0C20FDF7FCFA89
:1052B000112000F0BDFB0C20FDF7F6FA362000F0BF
:1052C000B7FB602000F0C2FB3A2000F0B1FB652084
:1052D00000F0BCFBB22000F0ABFB0C2000F0B6FBF2
:1052E0000C2000F0B3FB002000F0B0FB332000F0F6
:1052F000ADFB332000F0AAFBB72000F099FB722031
:1053000000F0A4FBBB2000F093FB3D2000F09EFBCF
:10531000C02000F08DFB2C2000F098FBC22000F094
:1053200087FB012000F092FBC32000F081FB1920D5
:1053300000F08CFBC42000F07BFB202000F086FBFB
:10534000C62000F075FB0F2000F080FBD02000F09D
:105350006FFBA42000F07AFBA12000F077FBE02097
:1053600000F066FBD02000F071FB042000F06EFB23
:105370000D2000F06BFB112000F068FB132000F003
:1053800065FB2B2000F062FB3F2000F05FFB542008
:1053900000F05CFB4C2000F059FB182000F056FB9D
:1053A0000D2000F053FB0B2000F050FB1F2000F0FD
:1053B0004DFB232000F04AFBE12000F039FBD02018
:1053C00000F044FB042000F041FB0C2000F03EFB09
:1053D000112000F03BFB132000F038FB2C2000F0E4
:1053E00035FB3F2000F032FB442000F02FFB512022
:1053F00000F02CFB2F2000F029FB1F2000F026FBE3
:105400001F2000F023FB202000F020FB232000F0D1
:105410001DFB212000F00CFB292000F009FB0021DE
:105420008623EF220846FFF7D4FEBDE81040002097
:10543000FFF700BF000C024001F024BC08B504488F
:10544000002100908723F022084600F003F808BDF1
:10545000DC8500082DE9F04114460219069E1D4620
:105460000746F02A26D84819872823D8401E83B239
:10547000521E92B23846FFF7ACFE012210210E48B0
:10548000FDF7D0FB6C434FF48030451EB0EB440F6A
:1054900009DC29463046FFF7CFFF012000EB44002E
:1054A00081B2701902E005EA44013046BDE8F041DE
:1054B000FFF7C2BFBDE8F0810004024070B50B4E9B
:1054C00005460C467078854205D02A464E21542068
:1054D00002F0E8FF7570B078844205D022464E2174
:1054E000C62002F0DFFFB47070BD0000580000203D
:1054F0002DE9F047B0EEC00A4FF0640ABCEEC00AD6
:105500004FF00A09494610EE100A2DED028B82B0C9
:10551000B0FBFAF3B3FBF1F209FB1233B0FBF1F28B
:10552000B2FBF1F409FB1422B0FBF9F409FB1401FE
:10553000424CB0EE608A642802D354F8235000E055
:105540003F4D0A2802D354F8227000E03C4FDFF8A8
:10555000F48054F82160D8F80000854208D00D236B
:105560000A225F2141200095FFF774FFC8F8005020
:10557000D8F804004546874207D00D230A225F2150
:105580004B200097FFF766FF6F60A868864207D040
:105590000D230A225F2155200096FFF75BFFAE60C6
:1055A000B0EEC80A4946BCEEC00A10EE100AB0FBC5
:1055B000FAF2B2FBF1F309FB1323B0FBF1F2B2FBF9
:1055C000F1F509FB1522B0FBF9F509FB150164287B
:1055D00002D354F8235000E0194D0A2802D354F89E
:1055E000226000E0164E54F82170164C0C342068EE
:1055F000854207D00D230A225F21B3200095FFF7D3
:1056000029FF25606068864207D00D230A225F21AA
:10561000BD200096FFF71EFF6660A068874207D096
:105620000D230A225F21C7200097FFF713FFA76011
:1056300002B0BDEC028BBDE8F08700006CFF0208F1
:10564000000D0020040E002008B5044800903F2300
:10565000642225211E20FFF7FDFE08BDE08401081D
:1056600008B5044800903F237B2225211E20FFF728
:10567000F1FE08BD18B6010808B5044800903F23A4
:10568000912225211E20FFF7E5FE08BDA2F20108A8
:1056900008B5044800903F23A82225211E20FFF7CB
:1056A000D9FE08BD003A020808B5044800903F231F
:1056B000BE2225211E20FFF7CDFE08BDB08C0208BA
:1056C00008B504480D2300901A463B213A20FFF705
:1056D000C1FE08BD34EA020808B50448009017234B
:1056E0006D2237216E20FFF7B5FE08BD86EB02085C
:1056F000F8B5124D287810B1F6EE000A01E0FEEE82
:10570000000AB3EE001A70EE810AF4EEC00AF1EE60
:1057100010FA02D201260A4C02E0094C0026F23CA3
:10572000A868844208D00B231A4625213120009412
:10573000FFF790FEAC602E70F8BD0000580000200E
:10574000EE8301082DE9F8435A2800D95A205A2936
:1057500000D95A214FF00A090C464946B0FBF1F234
:10576000B0FBF9F309FB1301264E0A2802D356F8C1
:10577000225000E0244DDFF8948056F82170D8F8CC
:105780000000854208D00D230A2271215720009580
:10579000FFF760FEC8F80050D8F80400454687427D
:1057A00007D00D230A22712161200097FFF752FED6
:1057B0006F604846B4FBF0F1B4FBF9F209FB12400C
:1057C0000A2C02D356F8214000E00F4C56F8205026
:1057D0000E4E08363068844207D00D230A2271210C
:1057E000CA200094FFF736FE34607068854207D007
:1057F0000D230A227121D4200095FFF72BFE75603E
:10580000BDE8F88394FF0208000D00208C00002002
:10581000B0EEC00AB2EE041A2DE9F84F20EE010AEC
:1058200064220A20DFF814A1BCEEC00A10EE101AA0
:10583000B0EEE00AB1FBF2F3B3FBF0F400FB14337B
:10584000B1FBF0F4B4FBF0F520EE010A00FB1545C6
:10585000B1FBF0F4BCEEC00A00FB141410EE106AA9
:10586000B6FBF2F1B1FBF0F200FB1212B6FBF0F165
:10587000B1FBF0F700FB1711B6FBF0F700FB176761
:105880002D4850F8256050F8245050F8238050F8E7
:10589000224050F8219050F82770DAF81C0080451B
:1058A00009D00B231A4606216720CDF80080FFF7A8
:1058B000D1FDCAF81C80DAF82000D046864208D014
:1058C0000B231A46062172200096FFF7C3FDC8F885
:1058D0002060D8F824004646854207D00B231A469C
:1058E000062184200095FFF7B5FD7562B06A8442F9
:1058F00007D00B231A460621AF200094FFF7AAFD1C
:10590000B462F16A894509D00B231A460621BA20F0
:10591000CDF80090FFF79EFDC6F82C90306B8742C3
:1059200007D00B231A460621CC200097FFF792FDE3
:105930003763BDE8F88F000044FF020858000020DC
:10594000F0EEC00A9FED311AB6EE000A2DE9F843D9
:1059500000EE810A4FF47A71DFF8B880BCEEC00A1D
:1059600010EE100AB0FBF1F20A21B2FBF1F301FBD9
:1059700013246422B0FBF2F2B2FBF1F301FB132318
:10598000B0FBF1F2B2FBF1F501FB1522B0FBF1F532
:1059900001FB15011E4850F8244050F8237050F8C0
:1059A000226050F82150D8F80C00844208D01B2304
:1059B0001A46142157200094FFF74CFDC8F80C40FC
:1059C000D8F810004446874207D01B231A461421FA
:1059D00072200097FFF73EFD27616069864207D07D
:1059E0001B231A4614219D200096FFF733FD6661A4
:1059F000A069854207D01B231A461421B8200095C0
:105A0000FFF728FDA561BDE8F88300000000C8424B
:105A10001CFF02085800002010B50448FEF71AFBCE
:105A2000BDE8104000210148FEF7A2BD940500200A
:105A300001B5002210210448FDF7F4F80121684661
:105A4000FFF7FAFC08BD00000004024001B5012286
:105A500010210448FDF7E6F801216846FFF7ECFC49
:105A600008BD00000004024010B51D482DED028B5A
:105A7000F0EE408A808800EE100AB8EE400A00F08E
:105A800039F8184CB0EE408A04F1100194EC030A86
:105A9000081F103CFBF76AFBD4ED080A94ED070AD7
:105AA000211D2046B0EE481A00F0FAFFD4ED010A9D
:105AB000B0EE680A0C4800F095FF0C4884ED030A2C
:105AC000F0EE400A90ED000AF0EE481ABDEC028BB1
:105AD000B8EEC00ABDE810409FED051A01F06EB99E
